{
  "contractName": "HospitalBillContract",
  "abi": [
    {
      "inputs": [],
      "stateMutability": "nonpayable",
      "type": "constructor"
    },
    {
      "anonymous": false,
      "inputs": [
        {
          "indexed": false,
          "internalType": "uint256",
          "name": "billId",
          "type": "uint256"
        },
        {
          "indexed": false,
          "internalType": "enum HospitalBillContract.BillStatus",
          "name": "newStatus",
          "type": "uint8"
        }
      ],
      "name": "BillStatusChanged",
      "type": "event"
    },
    {
      "anonymous": false,
      "inputs": [
        {
          "indexed": false,
          "internalType": "uint256",
          "name": "billId",
          "type": "uint256"
        },
        {
          "indexed": true,
          "internalType": "address",
          "name": "citizen",
          "type": "address"
        },
        {
          "indexed": false,
          "internalType": "uint256",
          "name": "amount",
          "type": "uint256"
        }
      ],
      "name": "BillSubmitted",
      "type": "event"
    },
    {
      "anonymous": false,
      "inputs": [
        {
          "indexed": true,
          "internalType": "bytes32",
          "name": "role",
          "type": "bytes32"
        },
        {
          "indexed": true,
          "internalType": "bytes32",
          "name": "previousAdminRole",
          "type": "bytes32"
        },
        {
          "indexed": true,
          "internalType": "bytes32",
          "name": "newAdminRole",
          "type": "bytes32"
        }
      ],
      "name": "RoleAdminChanged",
      "type": "event"
    },
    {
      "anonymous": false,
      "inputs": [
        {
          "indexed": true,
          "internalType": "bytes32",
          "name": "role",
          "type": "bytes32"
        },
        {
          "indexed": true,
          "internalType": "address",
          "name": "account",
          "type": "address"
        },
        {
          "indexed": true,
          "internalType": "address",
          "name": "sender",
          "type": "address"
        }
      ],
      "name": "RoleGranted",
      "type": "event"
    },
    {
      "anonymous": false,
      "inputs": [
        {
          "indexed": true,
          "internalType": "bytes32",
          "name": "role",
          "type": "bytes32"
        },
        {
          "indexed": true,
          "internalType": "address",
          "name": "account",
          "type": "address"
        },
        {
          "indexed": true,
          "internalType": "address",
          "name": "sender",
          "type": "address"
        }
      ],
      "name": "RoleRevoked",
      "type": "event"
    },
    {
      "inputs": [],
      "name": "DEFAULT_ADMIN_ROLE",
      "outputs": [
        {
          "internalType": "bytes32",
          "name": "",
          "type": "bytes32"
        }
      ],
      "stateMutability": "view",
      "type": "function",
      "constant": true
    },
    {
      "inputs": [],
      "name": "HOSPITAL_ROLE",
      "outputs": [
        {
          "internalType": "bytes32",
          "name": "",
          "type": "bytes32"
        }
      ],
      "stateMutability": "view",
      "type": "function",
      "constant": true
    },
    {
      "inputs": [],
      "name": "REIMBURSE_ROLE",
      "outputs": [
        {
          "internalType": "bytes32",
          "name": "",
          "type": "bytes32"
        }
      ],
      "stateMutability": "view",
      "type": "function",
      "constant": true
    },
    {
      "inputs": [
        {
          "internalType": "uint256",
          "name": "",
          "type": "uint256"
        }
      ],
      "name": "bills",
      "outputs": [
        {
          "internalType": "address",
          "name": "citizen",
          "type": "address"
        },
        {
          "internalType": "uint256",
          "name": "serviceCode",
          "type": "uint256"
        },
        {
          "internalType": "uint256",
          "name": "amount",
          "type": "uint256"
        },
        {
          "internalType": "bytes32",
          "name": "docHash",
          "type": "bytes32"
        },
        {
          "internalType": "enum HospitalBillContract.BillStatus",
          "name": "status",
          "type": "uint8"
        }
      ],
      "stateMutability": "view",
      "type": "function",
      "constant": true
    },
    {
      "inputs": [
        {
          "internalType": "bytes32",
          "name": "role",
          "type": "bytes32"
        }
      ],
      "name": "getRoleAdmin",
      "outputs": [
        {
          "internalType": "bytes32",
          "name": "",
          "type": "bytes32"
        }
      ],
      "stateMutability": "view",
      "type": "function",
      "constant": true
    },
    {
      "inputs": [
        {
          "internalType": "bytes32",
          "name": "role",
          "type": "bytes32"
        },
        {
          "internalType": "address",
          "name": "account",
          "type": "address"
        }
      ],
      "name": "grantRole",
      "outputs": [],
      "stateMutability": "nonpayable",
      "type": "function"
    },
    {
      "inputs": [
        {
          "internalType": "bytes32",
          "name": "role",
          "type": "bytes32"
        },
        {
          "internalType": "address",
          "name": "account",
          "type": "address"
        }
      ],
      "name": "hasRole",
      "outputs": [
        {
          "internalType": "bool",
          "name": "",
          "type": "bool"
        }
      ],
      "stateMutability": "view",
      "type": "function",
      "constant": true
    },
    {
      "inputs": [
        {
          "internalType": "bytes32",
          "name": "role",
          "type": "bytes32"
        },
        {
          "internalType": "address",
          "name": "account",
          "type": "address"
        }
      ],
      "name": "renounceRole",
      "outputs": [],
      "stateMutability": "nonpayable",
      "type": "function"
    },
    {
      "inputs": [
        {
          "internalType": "bytes32",
          "name": "role",
          "type": "bytes32"
        },
        {
          "internalType": "address",
          "name": "account",
          "type": "address"
        }
      ],
      "name": "revokeRole",
      "outputs": [],
      "stateMutability": "nonpayable",
      "type": "function"
    },
    {
      "inputs": [
        {
          "internalType": "bytes4",
          "name": "interfaceId",
          "type": "bytes4"
        }
      ],
      "name": "supportsInterface",
      "outputs": [
        {
          "internalType": "bool",
          "name": "",
          "type": "bool"
        }
      ],
      "stateMutability": "view",
      "type": "function",
      "constant": true
    },
    {
      "inputs": [
        {
          "internalType": "address",
          "name": "citizen",
          "type": "address"
        },
        {
          "internalType": "uint256",
          "name": "serviceCode",
          "type": "uint256"
        },
        {
          "internalType": "uint256",
          "name": "amount",
          "type": "uint256"
        },
        {
          "internalType": "bytes32",
          "name": "docHash",
          "type": "bytes32"
        }
      ],
      "name": "submitBill",
      "outputs": [
        {
          "internalType": "uint256",
          "name": "billId",
          "type": "uint256"
        }
      ],
      "stateMutability": "nonpayable",
      "type": "function"
    },
    {
      "inputs": [
        {
          "internalType": "uint256",
          "name": "billId",
          "type": "uint256"
        }
      ],
      "name": "getBill",
      "outputs": [
        {
          "components": [
            {
              "internalType": "address",
              "name": "citizen",
              "type": "address"
            },
            {
              "internalType": "uint256",
              "name": "serviceCode",
              "type": "uint256"
            },
            {
              "internalType": "uint256",
              "name": "amount",
              "type": "uint256"
            },
            {
              "internalType": "bytes32",
              "name": "docHash",
              "type": "bytes32"
            },
            {
              "internalType": "enum HospitalBillContract.BillStatus",
              "name": "status",
              "type": "uint8"
            }
          ],
          "internalType": "struct HospitalBillContract.Bill",
          "name": "",
          "type": "tuple"
        }
      ],
      "stateMutability": "view",
      "type": "function",
      "constant": true
    },
    {
      "inputs": [
        {
          "internalType": "uint256",
          "name": "billId",
          "type": "uint256"
        }
      ],
      "name": "markReimbursed",
      "outputs": [],
      "stateMutability": "nonpayable",
      "type": "function"
    },
    {
      "inputs": [
        {
          "internalType": "uint256",
          "name": "billId",
          "type": "uint256"
        }
      ],
      "name": "markRejected",
      "outputs": [],
      "stateMutability": "nonpayable",
      "type": "function"
    }
  ],
  "bytecode": "0x60806040523480156200001157600080fd5b50620000276000801b336200005f60201b60201c565b620000597fc8f5b4140cca307cd927e59cbeea8291bffeee228fc677f0fa059aef7b4dd8d5336200005f60201b60201c565b620001c2565b6200007182826200015060201b60201c565b6200014c57600160008084815260200190815260200160002060000160008373ffffffffffffffffffffffffffffffffffffffff1673ffffffffffffffffffffffffffffffffffffffff16815260200190815260200160002060006101000a81548160ff021916908315150217905550620000f1620001ba60201b60201c565b73ffffffffffffffffffffffffffffffffffffffff168173ffffffffffffffffffffffffffffffffffffffff16837f2f8788117e7eff1d82e926ec794901d17c78024a50270940304540a733656f0d60405160405180910390a45b5050565b600080600084815260200190815260200160002060000160008373ffffffffffffffffffffffffffffffffffffffff1673ffffffffffffffffffffffffffffffffffffffff16815260200190815260200160002060009054906101000a900460ff16905092915050565b600033905090565b6118de80620001d26000396000f3fe608060405234801561001057600080fd5b50600436106100ea5760003560e01c806343804c731161008c578063b1cd06e611610066578063b1cd06e614610271578063c992c313146102a1578063d547741f146102bf578063f6ba6678146102db576100ea565b806343804c73146101f357806391d1485414610223578063a217fddf14610253576100ea565b8063248a9ca3116100c8578063248a9ca31461015757806328bdcde8146101875780632f2ff15d146101bb57806336568abe146101d7576100ea565b806301ffc9a7146100ef57806317bf48791461011f5780631841f5581461013b575b600080fd5b61010960048036038101906101049190610fb2565b6102f9565b6040516101169190610ffa565b60405180910390f35b6101396004803603810190610134919061104b565b610373565b005b6101556004803603810190610150919061104b565b610429565b005b610171600480360381019061016c91906110ae565b6104de565b60405161017e91906110ea565b60405180910390f35b6101a1600480360381019061019c919061104b565b6104fd565b6040516101b29594939291906111cc565b60405180910390f35b6101d560048036038101906101d0919061124b565b610570565b005b6101f160048036038101906101ec919061124b565b610591565b005b61020d6004803603810190610208919061128b565b610614565b60405161021a91906112f2565b60405180910390f35b61023d6004803603810190610238919061124b565b610801565b60405161024a9190610ffa565b60405180910390f35b61025b61086b565b60405161026891906110ea565b60405180910390f35b61028b6004803603810190610286919061104b565b610872565b60405161029891906113b1565b60405180910390f35b6102a961095d565b6040516102b691906110ea565b60405180910390f35b6102d960048036038101906102d4919061124b565b610981565b005b6102e36109a2565b6040516102f091906110ea565b60405180910390f35b60007f7965db0b000000000000000000000000000000000000000000000000000000007bffffffffffffffffffffffffffffffffffffffffffffffffffffffff1916827bffffffffffffffffffffffffffffffffffffffffffffffffffffffff1916148061036c575061036b826109c6565b5b9050919050565b7f4976c5005be14b7477dabd18bf13bbb073a7cd736caf6a4d86a5362dca75644061039d81610a30565b6002600183815481106103b3576103b26113cc565b5b906000526020600020906005020160040160006101000a81548160ff021916908360028111156103e6576103e5611155565b5b02179055507f5d99924e3e9ae607b09f4d87fc546f9a2f326671b998222da67c4f24be0c82fe82600260405161041d9291906113fb565b60405180910390a15050565b7f4976c5005be14b7477dabd18bf13bbb073a7cd736caf6a4d86a5362dca75644061045381610a30565b6001808381548110610468576104676113cc565b5b906000526020600020906005020160040160006101000a81548160ff0219169083600281111561049b5761049a611155565b5b02179055507f5d99924e3e9ae607b09f4d87fc546f9a2f326671b998222da67c4f24be0c82fe8260016040516104d29291906113fb565b60405180910390a15050565b6000806000838152602001908152602001600020600101549050919050565b6001818154811061050d57600080fd5b90600052602060002090600502016000915090508060000160009054906101000a900473ffffffffffffffffffffffffffffffffffffffff16908060010154908060020154908060030154908060040160009054906101000a900460ff16905085565b610579826104de565b61058281610a30565b61058c8383610a44565b505050565b610599610b24565b73ffffffffffffffffffffffffffffffffffffffff168173ffffffffffffffffffffffffffffffffffffffff1614610606576040517f08c379a00000000000000000000000000000000000000000000000000000000081526004016105fd906114a7565b60405180910390fd5b6106108282610b2c565b5050565b60007fc8f5b4140cca307cd927e59cbeea8291bffeee228fc677f0fa059aef7b4dd8d561064081610a30565b60008411610683576040517f08c379a000000000000000000000000000000000000000000000000000000000815260040161067a90611513565b60405180910390fd5b60016040518060a001604052808873ffffffffffffffffffffffffffffffffffffffff168152602001878152602001868152602001858152602001600060028111156106d2576106d1611155565b5b815250908060018154018082558091505060019003906000526020600020906005020160009091909190915060008201518160000160006101000a81548173ffffffffffffffffffffffffffffffffffffffff021916908373ffffffffffffffffffffffffffffffffffffffff16021790555060208201518160010155604082015181600201556060820151816003015560808201518160040160006101000a81548160ff0219169083600281111561078e5761078d611155565b5b02179055505050600180805490506107a69190611562565b91508573ffffffffffffffffffffffffffffffffffffffff167f16144de40a5811c417af2a893c3961339398fa0346a66ba855e57f51268eb88483866040516107f0929190611596565b60405180910390a250949350505050565b600080600084815260200190815260200160002060000160008373ffffffffffffffffffffffffffffffffffffffff1673ffffffffffffffffffffffffffffffffffffffff16815260200190815260200160002060009054906101000a900460ff16905092915050565b6000801b81565b61087a610efb565b6001828154811061088e5761088d6113cc565b5b90600052602060002090600502016040518060a00160405290816000820160009054906101000a900473ffffffffffffffffffffffffffffffffffffffff1673ffffffffffffffffffffffffffffffffffffffff1673ffffffffffffffffffffffffffffffffffffffff1681526020016001820154815260200160028201548152602001600382015481526020016004820160009054906101000a900460ff1660028111156109405761093f611155565b5b600281111561095257610951611155565b5b815250509050919050565b7f4976c5005be14b7477dabd18bf13bbb073a7cd736caf6a4d86a5362dca75644081565b61098a826104de565b61099381610a30565b61099d8383610b2c565b505050565b7fc8f5b4140cca307cd927e59cbeea8291bffeee228fc677f0fa059aef7b4dd8d581565b60007f01ffc9a7000000000000000000000000000000000000000000000000000000007bffffffffffffffffffffffffffffffffffffffffffffffffffffffff1916827bffffffffffffffffffffffffffffffffffffffffffffffffffffffff1916149050919050565b610a4181610a3c610b24565b610c0d565b50565b610a4e8282610801565b610b2057600160008084815260200190815260200160002060000160008373ffffffffffffffffffffffffffffffffffffffff1673ffffffffffffffffffffffffffffffffffffffff16815260200190815260200160002060006101000a81548160ff021916908315150217905550610ac5610b24565b73ffffffffffffffffffffffffffffffffffffffff168173ffffffffffffffffffffffffffffffffffffffff16837f2f8788117e7eff1d82e926ec794901d17c78024a50270940304540a733656f0d60405160405180910390a45b5050565b600033905090565b610b368282610801565b15610c0957600080600084815260200190815260200160002060000160008373ffffffffffffffffffffffffffffffffffffffff1673ffffffffffffffffffffffffffffffffffffffff16815260200190815260200160002060006101000a81548160ff021916908315150217905550610bae610b24565b73ffffffffffffffffffffffffffffffffffffffff168173ffffffffffffffffffffffffffffffffffffffff16837ff6391f5c32d9c69d2a47ea670b442974b53935d1edc7fd64eb21e047a839171b60405160405180910390a45b5050565b610c178282610801565b610c8e57610c2481610c92565b610c328360001c6020610cbf565b604051602001610c439291906116c8565b6040516020818303038152906040526040517f08c379a0000000000000000000000000000000000000000000000000000000008152600401610c85919061174c565b60405180910390fd5b5050565b6060610cb88273ffffffffffffffffffffffffffffffffffffffff16601460ff16610cbf565b9050919050565b606060006002836002610cd2919061176e565b610cdc91906117b0565b67ffffffffffffffff811115610cf557610cf46117e4565b5b6040519080825280601f01601f191660200182016040528015610d275781602001600182028036833780820191505090505b5090507f300000000000000000000000000000000000000000000000000000000000000081600081518110610d5f57610d5e6113cc565b5b60200101907effffffffffffffffffffffffffffffffffffffffffffffffffffffffffffff1916908160001a9053507f780000000000000000000000000000000000000000000000000000000000000081600181518110610dc357610dc26113cc565b5b60200101907effffffffffffffffffffffffffffffffffffffffffffffffffffffffffffff1916908160001a90535060006001846002610e03919061176e565b610e0d91906117b0565b90505b6001811115610ead577f3031323334353637383961626364656600000000000000000000000000000000600f861660108110610e4f57610e4e6113cc565b5b1a60f81b828281518110610e6657610e656113cc565b5b60200101907effffffffffffffffffffffffffffffffffffffffffffffffffffffffffffff1916908160001a905350600485901c945080610ea690611813565b9050610e10565b5060008414610ef1576040517f08c379a0000000000000000000000000000000000000000000000000000000008152600401610ee890611888565b60405180910390fd5b8091505092915050565b6040518060a00160405280600073ffffffffffffffffffffffffffffffffffffffff16815260200160008152602001600081526020016000801916815260200160006002811115610f4f57610f4e611155565b5b81525090565b600080fd5b60007fffffffff0000000000000000000000000000000000000000000000000000000082169050919050565b610f8f81610f5a565b8114610f9a57600080fd5b50565b600081359050610fac81610f86565b92915050565b600060208284031215610fc857610fc7610f55565b5b6000610fd684828501610f9d565b91505092915050565b60008115159050919050565b610ff481610fdf565b82525050565b600060208201905061100f6000830184610feb565b92915050565b6000819050919050565b61102881611015565b811461103357600080fd5b50565b6000813590506110458161101f565b92915050565b60006020828403121561106157611060610f55565b5b600061106f84828501611036565b91505092915050565b6000819050919050565b61108b81611078565b811461109657600080fd5b50565b6000813590506110a881611082565b92915050565b6000602082840312156110c4576110c3610f55565b5b60006110d284828501611099565b91505092915050565b6110e481611078565b82525050565b60006020820190506110ff60008301846110db565b92915050565b600073ffffffffffffffffffffffffffffffffffffffff82169050919050565b600061113082611105565b9050919050565b61114081611125565b82525050565b61114f81611015565b82525050565b7f4e487b7100000000000000000000000000000000000000000000000000000000600052602160045260246000fd5b6003811061119557611194611155565b5b50565b60008190506111a682611184565b919050565b60006111b682611198565b9050919050565b6111c6816111ab565b82525050565b600060a0820190506111e16000830188611137565b6111ee6020830187611146565b6111fb6040830186611146565b61120860608301856110db565b61121560808301846111bd565b9695505050505050565b61122881611125565b811461123357600080fd5b50565b6000813590506112458161121f565b92915050565b6000806040838503121561126257611261610f55565b5b600061127085828601611099565b925050602061128185828601611236565b9150509250929050565b600080600080608085870312156112a5576112a4610f55565b5b60006112b387828801611236565b94505060206112c487828801611036565b93505060406112d587828801611036565b92505060606112e687828801611099565b91505092959194509250565b60006020820190506113076000830184611146565b92915050565b61131681611125565b82525050565b61132581611015565b82525050565b61133481611078565b82525050565b611343816111ab565b82525050565b60a08201600082015161135f600085018261130d565b506020820151611372602085018261131c565b506040820151611385604085018261131c565b506060820151611398606085018261132b565b5060808201516113ab608085018261133a565b50505050565b600060a0820190506113c66000830184611349565b92915050565b7f4e487b7100000000000000000000000000000000000000000000000000000000600052603260045260246000fd5b60006040820190506114106000830185611146565b61141d60208301846111bd565b9392505050565b600082825260208201905092915050565b7f416363657373436f6e74726f6c3a2063616e206f6e6c792072656e6f756e636560008201527f20726f6c657320666f722073656c660000000000000000000000000000000000602082015250565b6000611491602f83611424565b915061149c82611435565b604082019050919050565b600060208201905081810360008301526114c081611484565b9050919050565b7f496e76616c696420616d6f756e74000000000000000000000000000000000000600082015250565b60006114fd600e83611424565b9150611508826114c7565b602082019050919050565b6000602082019050818103600083015261152c816114f0565b9050919050565b7f4e487b7100000000000000000000000000000000000000000000000000000000600052601160045260246000fd5b600061156d82611015565b915061157883611015565b92508282039050818111156115905761158f611533565b5b92915050565b60006040820190506115ab6000830185611146565b6115b86020830184611146565b9392505050565b600081905092915050565b7f416363657373436f6e74726f6c3a206163636f756e7420000000000000000000600082015250565b60006116006017836115bf565b915061160b826115ca565b601782019050919050565b600081519050919050565b60005b8381101561163f578082015181840152602081019050611624565b60008484015250505050565b600061165682611616565b61166081856115bf565b9350611670818560208601611621565b80840191505092915050565b7f206973206d697373696e6720726f6c6520000000000000000000000000000000600082015250565b60006116b26011836115bf565b91506116bd8261167c565b601182019050919050565b60006116d3826115f3565b91506116df828561164b565b91506116ea826116a5565b91506116f6828461164b565b91508190509392505050565b6000601f19601f8301169050919050565b600061171e82611616565b6117288185611424565b9350611738818560208601611621565b61174181611702565b840191505092915050565b600060208201905081810360008301526117668184611713565b905092915050565b600061177982611015565b915061178483611015565b925082820261179281611015565b915082820484148315176117a9576117a8611533565b5b5092915050565b60006117bb82611015565b91506117c683611015565b92508282019050808211156117de576117dd611533565b5b92915050565b7f4e487b7100000000000000000000000000000000000000000000000000000000600052604160045260246000fd5b600061181e82611015565b91506000820361183157611830611533565b5b600182039050919050565b7f537472696e67733a20686578206c656e67746820696e73756666696369656e74600082015250565b6000611872602083611424565b915061187d8261183c565b602082019050919050565b600060208201905081810360008301526118a181611865565b905091905056fea26469706673582212202f830a87543407f9483d2e53c3a4ecc331021f9d7bdcbb895d7becd1bc4f852264736f6c63430008130033",
  "immutableReferences": {},
  "source": "pragma solidity ^0.8.19;\r\n\r\nimport \"@openzeppelin/contracts/access/AccessControl.sol\";\r\n\r\ncontract HospitalBillContract is AccessControl {\r\n    bytes32 public constant HOSPITAL_ROLE = keccak256(\"HOSPITAL_ROLE\");\r\n    bytes32 public constant REIMBURSE_ROLE = keccak256(\"REIMBURSE_ROLE\");\r\n\r\n    enum BillStatus { Submitted, Reimbursed, Rejected }\r\n\r\n    struct Bill {\r\n        address citizen;\r\n        uint256 serviceCode;\r\n        uint256 amount;\r\n        bytes32 docHash;\r\n        BillStatus status;\r\n    }\r\n\r\n    Bill[] public bills;\r\n\r\n    event BillSubmitted(uint256 billId, address indexed citizen, uint256 amount);\r\n    event BillStatusChanged(uint256 billId, BillStatus newStatus);\r\n\r\n    constructor() {\r\n        _grantRole(DEFAULT_ADMIN_ROLE, msg.sender);\r\n        _grantRole(HOSPITAL_ROLE, msg.sender);\r\n    }\r\n\r\n    function submitBill(\r\n        address citizen,\r\n        uint256 serviceCode,\r\n        uint256 amount,\r\n        bytes32 docHash\r\n    ) external onlyRole(HOSPITAL_ROLE) returns (uint256 billId) {\r\n        require(amount > 0, \"Invalid amount\");\r\n        bills.push(Bill(citizen, serviceCode, amount, docHash, BillStatus.Submitted));\r\n        billId = bills.length - 1;\r\n        emit BillSubmitted(billId, citizen, amount);\r\n    }\r\n\r\n    function getBill(uint256 billId) external view returns (Bill memory) {\r\n        return bills[billId];\r\n    }\r\n\r\n    function markReimbursed(uint256 billId) external onlyRole(REIMBURSE_ROLE) {\r\n        bills[billId].status = BillStatus.Reimbursed;\r\n        emit BillStatusChanged(billId, BillStatus.Reimbursed);\r\n    }\r\n\r\n    function markRejected(uint256 billId) external onlyRole(REIMBURSE_ROLE) {\r\n        bills[billId].status = BillStatus.Rejected;\r\n        emit BillStatusChanged(billId, BillStatus.Rejected);\r\n    }\r\n}\r\n",
  "sourcePath": "D:\\Githubproj\\BlockchainTeam2\\Contracts\\HospitalBillContract.sol",
  "compiler": {
    "name": "solc",
    "version": "0.8.19+commit.7dd6d404.Emscripten.clang"
  },
  "schemaVersion": "3.4.16",
  "updatedAt": "2025-10-31T15:39:26.364Z",
  "networkType": "ethereum",
  "devdoc": {
    "events": {
      "RoleAdminChanged(bytes32,bytes32,bytes32)": {
        "details": "Emitted when `newAdminRole` is set as ``role``'s admin role, replacing `previousAdminRole` `DEFAULT_ADMIN_ROLE` is the starting admin for all roles, despite {RoleAdminChanged} not being emitted signaling this. _Available since v3.1._"
      },
      "RoleGranted(bytes32,address,address)": {
        "details": "Emitted when `account` is granted `role`. `sender` is the account that originated the contract call, an admin role bearer except when using {AccessControl-_setupRole}."
      },
      "RoleRevoked(bytes32,address,address)": {
        "details": "Emitted when `account` is revoked `role`. `sender` is the account that originated the contract call:   - if using `revokeRole`, it is the admin role bearer   - if using `renounceRole`, it is the role bearer (i.e. `account`)"
      }
    },
    "kind": "dev",
    "methods": {
      "getRoleAdmin(bytes32)": {
        "details": "Returns the admin role that controls `role`. See {grantRole} and {revokeRole}. To change a role's admin, use {_setRoleAdmin}."
      },
      "grantRole(bytes32,address)": {
        "details": "Grants `role` to `account`. If `account` had not been already granted `role`, emits a {RoleGranted} event. Requirements: - the caller must have ``role``'s admin role. May emit a {RoleGranted} event."
      },
      "hasRole(bytes32,address)": {
        "details": "Returns `true` if `account` has been granted `role`."
      },
      "renounceRole(bytes32,address)": {
        "details": "Revokes `role` from the calling account. Roles are often managed via {grantRole} and {revokeRole}: this function's purpose is to provide a mechanism for accounts to lose their privileges if they are compromised (such as when a trusted device is misplaced). If the calling account had been revoked `role`, emits a {RoleRevoked} event. Requirements: - the caller must be `account`. May emit a {RoleRevoked} event."
      },
      "revokeRole(bytes32,address)": {
        "details": "Revokes `role` from `account`. If `account` had been granted `role`, emits a {RoleRevoked} event. Requirements: - the caller must have ``role``'s admin role. May emit a {RoleRevoked} event."
      },
      "supportsInterface(bytes4)": {
        "details": "See {IERC165-supportsInterface}."
      }
    },
    "version": 1
  },
  "userdoc": {
    "kind": "user",
    "methods": {},
    "version": 1
  }
}