{
  "contractName": "HospitalBillContract",
  "abi": [
    {
      "inputs": [],
      "stateMutability": "nonpayable",
      "type": "constructor"
    },
    {
      "anonymous": false,
      "inputs": [
        {
          "indexed": false,
          "internalType": "uint256",
          "name": "billId",
          "type": "uint256"
        },
        {
          "indexed": false,
          "internalType": "enum HospitalBillContract.BillStatus",
          "name": "newStatus",
          "type": "uint8"
        }
      ],
      "name": "BillStatusChanged",
      "type": "event"
    },
    {
      "anonymous": false,
      "inputs": [
        {
          "indexed": false,
          "internalType": "uint256",
          "name": "billId",
          "type": "uint256"
        },
        {
          "indexed": true,
          "internalType": "address",
          "name": "citizen",
          "type": "address"
        },
        {
          "indexed": false,
          "internalType": "uint256",
          "name": "amount",
          "type": "uint256"
        }
      ],
      "name": "BillSubmitted",
      "type": "event"
    },
    {
      "anonymous": false,
      "inputs": [
        {
          "indexed": true,
          "internalType": "bytes32",
          "name": "role",
          "type": "bytes32"
        },
        {
          "indexed": true,
          "internalType": "bytes32",
          "name": "previousAdminRole",
          "type": "bytes32"
        },
        {
          "indexed": true,
          "internalType": "bytes32",
          "name": "newAdminRole",
          "type": "bytes32"
        }
      ],
      "name": "RoleAdminChanged",
      "type": "event"
    },
    {
      "anonymous": false,
      "inputs": [
        {
          "indexed": true,
          "internalType": "bytes32",
          "name": "role",
          "type": "bytes32"
        },
        {
          "indexed": true,
          "internalType": "address",
          "name": "account",
          "type": "address"
        },
        {
          "indexed": true,
          "internalType": "address",
          "name": "sender",
          "type": "address"
        }
      ],
      "name": "RoleGranted",
      "type": "event"
    },
    {
      "anonymous": false,
      "inputs": [
        {
          "indexed": true,
          "internalType": "bytes32",
          "name": "role",
          "type": "bytes32"
        },
        {
          "indexed": true,
          "internalType": "address",
          "name": "account",
          "type": "address"
        },
        {
          "indexed": true,
          "internalType": "address",
          "name": "sender",
          "type": "address"
        }
      ],
      "name": "RoleRevoked",
      "type": "event"
    },
    {
      "inputs": [],
      "name": "DEFAULT_ADMIN_ROLE",
      "outputs": [
        {
          "internalType": "bytes32",
          "name": "",
          "type": "bytes32"
        }
      ],
      "stateMutability": "view",
      "type": "function",
      "constant": true
    },
    {
      "inputs": [],
      "name": "HOSPITAL_ROLE",
      "outputs": [
        {
          "internalType": "bytes32",
          "name": "",
          "type": "bytes32"
        }
      ],
      "stateMutability": "view",
      "type": "function",
      "constant": true
    },
    {
      "inputs": [],
      "name": "REIMBURSE_ROLE",
      "outputs": [
        {
          "internalType": "bytes32",
          "name": "",
          "type": "bytes32"
        }
      ],
      "stateMutability": "view",
      "type": "function",
      "constant": true
    },
    {
      "inputs": [
        {
          "internalType": "uint256",
          "name": "",
          "type": "uint256"
        }
      ],
      "name": "bills",
      "outputs": [
        {
          "internalType": "address",
          "name": "citizen",
          "type": "address"
        },
        {
          "internalType": "uint256",
          "name": "serviceCode",
          "type": "uint256"
        },
        {
          "internalType": "uint256",
          "name": "amount",
          "type": "uint256"
        },
        {
          "internalType": "bytes32",
          "name": "docHash",
          "type": "bytes32"
        },
        {
          "internalType": "enum HospitalBillContract.BillStatus",
          "name": "status",
          "type": "uint8"
        }
      ],
      "stateMutability": "view",
      "type": "function",
      "constant": true
    },
    {
      "inputs": [
        {
          "internalType": "bytes32",
          "name": "role",
          "type": "bytes32"
        }
      ],
      "name": "getRoleAdmin",
      "outputs": [
        {
          "internalType": "bytes32",
          "name": "",
          "type": "bytes32"
        }
      ],
      "stateMutability": "view",
      "type": "function",
      "constant": true
    },
    {
      "inputs": [
        {
          "internalType": "bytes32",
          "name": "role",
          "type": "bytes32"
        },
        {
          "internalType": "address",
          "name": "account",
          "type": "address"
        }
      ],
      "name": "grantRole",
      "outputs": [],
      "stateMutability": "nonpayable",
      "type": "function"
    },
    {
      "inputs": [
        {
          "internalType": "bytes32",
          "name": "role",
          "type": "bytes32"
        },
        {
          "internalType": "address",
          "name": "account",
          "type": "address"
        }
      ],
      "name": "hasRole",
      "outputs": [
        {
          "internalType": "bool",
          "name": "",
          "type": "bool"
        }
      ],
      "stateMutability": "view",
      "type": "function",
      "constant": true
    },
    {
      "inputs": [
        {
          "internalType": "bytes32",
          "name": "role",
          "type": "bytes32"
        },
        {
          "internalType": "address",
          "name": "account",
          "type": "address"
        }
      ],
      "name": "renounceRole",
      "outputs": [],
      "stateMutability": "nonpayable",
      "type": "function"
    },
    {
      "inputs": [
        {
          "internalType": "bytes32",
          "name": "role",
          "type": "bytes32"
        },
        {
          "internalType": "address",
          "name": "account",
          "type": "address"
        }
      ],
      "name": "revokeRole",
      "outputs": [],
      "stateMutability": "nonpayable",
      "type": "function"
    },
    {
      "inputs": [
        {
          "internalType": "bytes4",
          "name": "interfaceId",
          "type": "bytes4"
        }
      ],
      "name": "supportsInterface",
      "outputs": [
        {
          "internalType": "bool",
          "name": "",
          "type": "bool"
        }
      ],
      "stateMutability": "view",
      "type": "function",
      "constant": true
    },
    {
      "inputs": [
        {
          "internalType": "address",
          "name": "citizen",
          "type": "address"
        },
        {
          "internalType": "uint256",
          "name": "serviceCode",
          "type": "uint256"
        },
        {
          "internalType": "uint256",
          "name": "amount",
          "type": "uint256"
        },
        {
          "internalType": "bytes32",
          "name": "docHash",
          "type": "bytes32"
        }
      ],
      "name": "submitBill",
      "outputs": [
        {
          "internalType": "uint256",
          "name": "billId",
          "type": "uint256"
        }
      ],
      "stateMutability": "nonpayable",
      "type": "function"
    },
    {
      "inputs": [
        {
          "internalType": "uint256",
          "name": "billId",
          "type": "uint256"
        }
      ],
      "name": "getBill",
      "outputs": [
        {
          "components": [
            {
              "internalType": "address",
              "name": "citizen",
              "type": "address"
            },
            {
              "internalType": "uint256",
              "name": "serviceCode",
              "type": "uint256"
            },
            {
              "internalType": "uint256",
              "name": "amount",
              "type": "uint256"
            },
            {
              "internalType": "bytes32",
              "name": "docHash",
              "type": "bytes32"
            },
            {
              "internalType": "enum HospitalBillContract.BillStatus",
              "name": "status",
              "type": "uint8"
            }
          ],
          "internalType": "struct HospitalBillContract.Bill",
          "name": "",
          "type": "tuple"
        }
      ],
      "stateMutability": "view",
      "type": "function",
      "constant": true
    },
    {
      "inputs": [
        {
          "internalType": "uint256",
          "name": "billId",
          "type": "uint256"
        }
      ],
      "name": "markReimbursed",
      "outputs": [],
      "stateMutability": "nonpayable",
      "type": "function"
    },
    {
      "inputs": [
        {
          "internalType": "uint256",
          "name": "billId",
          "type": "uint256"
        }
      ],
      "name": "markRejected",
      "outputs": [],
      "stateMutability": "nonpayable",
      "type": "function"
    },
    {
      "inputs": [],
      "name": "getBillCount",
      "outputs": [
        {
          "internalType": "uint256",
          "name": "",
          "type": "uint256"
        }
      ],
      "stateMutability": "view",
      "type": "function",
      "constant": true
    },
    {
      "inputs": [
        {
          "internalType": "enum HospitalBillContract.BillStatus",
          "name": "status",
          "type": "uint8"
        }
      ],
      "name": "getBillsByStatus",
      "outputs": [
        {
          "internalType": "uint256[]",
          "name": "",
          "type": "uint256[]"
        }
      ],
      "stateMutability": "view",
      "type": "function",
      "constant": true
    },
    {
      "inputs": [],
      "name": "getAllBills",
      "outputs": [
        {
          "internalType": "uint256[]",
          "name": "",
          "type": "uint256[]"
        }
      ],
      "stateMutability": "view",
      "type": "function",
      "constant": true
    }
  ],
  "bytecode": "0x60806040523480156200001157600080fd5b50620000276000801b336200005f60201b60201c565b620000597fc8f5b4140cca307cd927e59cbeea8291bffeee228fc677f0fa059aef7b4dd8d5336200005f60201b60201c565b620001c2565b6200007182826200015060201b60201c565b6200014c57600160008084815260200190815260200160002060000160008373ffffffffffffffffffffffffffffffffffffffff1673ffffffffffffffffffffffffffffffffffffffff16815260200190815260200160002060006101000a81548160ff021916908315150217905550620000f1620001ba60201b60201c565b73ffffffffffffffffffffffffffffffffffffffff168173ffffffffffffffffffffffffffffffffffffffff16837f2f8788117e7eff1d82e926ec794901d17c78024a50270940304540a733656f0d60405160405180910390a45b5050565b600080600084815260200190815260200160002060000160008373ffffffffffffffffffffffffffffffffffffffff1673ffffffffffffffffffffffffffffffffffffffff16815260200190815260200160002060009054906101000a900460ff16905092915050565b600033905090565b611d3880620001d26000396000f3fe608060405234801561001057600080fd5b506004361061010b5760003560e01c806343804c73116100a2578063a217fddf11610071578063a217fddf146102e0578063b1cd06e6146102fe578063c992c3131461032e578063d547741f1461034c578063f6ba6678146103685761010b565b806343804c731461023257806361c4edd714610262578063818e1f1a1461029257806391d14854146102b05761010b565b8063248a9ca3116100de578063248a9ca31461019657806328bdcde8146101c65780632f2ff15d146101fa57806336568abe146102165761010b565b806301ffc9a71461011057806317bf4879146101405780631841f5581461015c5780631883c7cc14610178575b600080fd5b61012a600480360381019061012591906112a1565b610386565b60405161013791906112e9565b60405180910390f35b61015a6004803603810190610155919061133a565b610400565b005b6101766004803603810190610171919061133a565b6104b6565b005b61018061056b565b60405161018d9190611376565b60405180910390f35b6101b060048036038101906101ab91906113c7565b610578565b6040516101bd9190611403565b60405180910390f35b6101e060048036038101906101db919061133a565b610597565b6040516101f19594939291906114d6565b60405180910390f35b610214600480360381019061020f9190611555565b61060a565b005b610230600480360381019061022b9190611555565b61062b565b005b61024c60048036038101906102479190611595565b6106ae565b6040516102599190611376565b60405180910390f35b61027c60048036038101906102779190611621565b61089b565b604051610289919061170c565b60405180910390f35b61029a610a51565b6040516102a7919061170c565b60405180910390f35b6102ca60048036038101906102c59190611555565b610af0565b6040516102d791906112e9565b60405180910390f35b6102e8610b5a565b6040516102f59190611403565b60405180910390f35b6103186004803603810190610313919061133a565b610b61565b60405161032591906117c3565b60405180910390f35b610336610c4c565b6040516103439190611403565b60405180910390f35b61036660048036038101906103619190611555565b610c70565b005b610370610c91565b60405161037d9190611403565b60405180910390f35b60007f7965db0b000000000000000000000000000000000000000000000000000000007bffffffffffffffffffffffffffffffffffffffffffffffffffffffff1916827bffffffffffffffffffffffffffffffffffffffffffffffffffffffff191614806103f957506103f882610cb5565b5b9050919050565b7f4976c5005be14b7477dabd18bf13bbb073a7cd736caf6a4d86a5362dca75644061042a81610d1f565b6002600183815481106104405761043f6117de565b5b906000526020600020906005020160040160006101000a81548160ff021916908360028111156104735761047261145f565b5b02179055507f5d99924e3e9ae607b09f4d87fc546f9a2f326671b998222da67c4f24be0c82fe8260026040516104aa92919061180d565b60405180910390a15050565b7f4976c5005be14b7477dabd18bf13bbb073a7cd736caf6a4d86a5362dca7564406104e081610d1f565b60018083815481106104f5576104f46117de565b5b906000526020600020906005020160040160006101000a81548160ff021916908360028111156105285761052761145f565b5b02179055507f5d99924e3e9ae607b09f4d87fc546f9a2f326671b998222da67c4f24be0c82fe82600160405161055f92919061180d565b60405180910390a15050565b6000600180549050905090565b6000806000838152602001908152602001600020600101549050919050565b600181815481106105a757600080fd5b90600052602060002090600502016000915090508060000160009054906101000a900473ffffffffffffffffffffffffffffffffffffffff16908060010154908060020154908060030154908060040160009054906101000a900460ff16905085565b61061382610578565b61061c81610d1f565b6106268383610d33565b505050565b610633610e13565b73ffffffffffffffffffffffffffffffffffffffff168173ffffffffffffffffffffffffffffffffffffffff16146106a0576040517f08c379a0000000000000000000000000000000000000000000000000000000008152600401610697906118b9565b60405180910390fd5b6106aa8282610e1b565b5050565b60007fc8f5b4140cca307cd927e59cbeea8291bffeee228fc677f0fa059aef7b4dd8d56106da81610d1f565b6000841161071d576040517f08c379a000000000000000000000000000000000000000000000000000000000815260040161071490611925565b60405180910390fd5b60016040518060a001604052808873ffffffffffffffffffffffffffffffffffffffff1681526020018781526020018681526020018581526020016000600281111561076c5761076b61145f565b5b815250908060018154018082558091505060019003906000526020600020906005020160009091909190915060008201518160000160006101000a81548173ffffffffffffffffffffffffffffffffffffffff021916908373ffffffffffffffffffffffffffffffffffffffff16021790555060208201518160010155604082015181600201556060820151816003015560808201518160040160006101000a81548160ff021916908360028111156108285761082761145f565b5b02179055505050600180805490506108409190611974565b91508573ffffffffffffffffffffffffffffffffffffffff167f16144de40a5811c417af2a893c3961339398fa0346a66ba855e57f51268eb884838660405161088a9291906119a8565b60405180910390a250949350505050565b6060600060018054905067ffffffffffffffff8111156108be576108bd6119d1565b5b6040519080825280602002602001820160405280156108ec5781602001602082028036833780820191505090505b5090506000805b60018054905081101561099f578460028111156109135761091261145f565b5b60018281548110610927576109266117de565b5b906000526020600020906005020160040160009054906101000a900460ff1660028111156109585761095761145f565b5b0361098c5780838381518110610971576109706117de565b5b602002602001018181525050818061098890611a00565b9250505b808061099790611a00565b9150506108f3565b5060008167ffffffffffffffff8111156109bc576109bb6119d1565b5b6040519080825280602002602001820160405280156109ea5781602001602082028036833780820191505090505b50905060005b82811015610a4557838181518110610a0b57610a0a6117de565b5b6020026020010151828281518110610a2657610a256117de565b5b6020026020010181815250508080610a3d90611a00565b9150506109f0565b50809350505050919050565b6060600060018054905067ffffffffffffffff811115610a7457610a736119d1565b5b604051908082528060200260200182016040528015610aa25781602001602082028036833780820191505090505b50905060005b600180549050811015610ae85780828281518110610ac957610ac86117de565b5b6020026020010181815250508080610ae090611a00565b915050610aa8565b508091505090565b600080600084815260200190815260200160002060000160008373ffffffffffffffffffffffffffffffffffffffff1673ffffffffffffffffffffffffffffffffffffffff16815260200190815260200160002060009054906101000a900460ff16905092915050565b6000801b81565b610b696111ea565b60018281548110610b7d57610b7c6117de565b5b90600052602060002090600502016040518060a00160405290816000820160009054906101000a900473ffffffffffffffffffffffffffffffffffffffff1673ffffffffffffffffffffffffffffffffffffffff1673ffffffffffffffffffffffffffffffffffffffff1681526020016001820154815260200160028201548152602001600382015481526020016004820160009054906101000a900460ff166002811115610c2f57610c2e61145f565b5b6002811115610c4157610c4061145f565b5b815250509050919050565b7f4976c5005be14b7477dabd18bf13bbb073a7cd736caf6a4d86a5362dca75644081565b610c7982610578565b610c8281610d1f565b610c8c8383610e1b565b505050565b7fc8f5b4140cca307cd927e59cbeea8291bffeee228fc677f0fa059aef7b4dd8d581565b60007f01ffc9a7000000000000000000000000000000000000000000000000000000007bffffffffffffffffffffffffffffffffffffffffffffffffffffffff1916827bffffffffffffffffffffffffffffffffffffffffffffffffffffffff1916149050919050565b610d3081610d2b610e13565b610efc565b50565b610d3d8282610af0565b610e0f57600160008084815260200190815260200160002060000160008373ffffffffffffffffffffffffffffffffffffffff1673ffffffffffffffffffffffffffffffffffffffff16815260200190815260200160002060006101000a81548160ff021916908315150217905550610db4610e13565b73ffffffffffffffffffffffffffffffffffffffff168173ffffffffffffffffffffffffffffffffffffffff16837f2f8788117e7eff1d82e926ec794901d17c78024a50270940304540a733656f0d60405160405180910390a45b5050565b600033905090565b610e258282610af0565b15610ef857600080600084815260200190815260200160002060000160008373ffffffffffffffffffffffffffffffffffffffff1673ffffffffffffffffffffffffffffffffffffffff16815260200190815260200160002060006101000a81548160ff021916908315150217905550610e9d610e13565b73ffffffffffffffffffffffffffffffffffffffff168173ffffffffffffffffffffffffffffffffffffffff16837ff6391f5c32d9c69d2a47ea670b442974b53935d1edc7fd64eb21e047a839171b60405160405180910390a45b5050565b610f068282610af0565b610f7d57610f1381610f81565b610f218360001c6020610fae565b604051602001610f32929190611b51565b6040516020818303038152906040526040517f08c379a0000000000000000000000000000000000000000000000000000000008152600401610f749190611bd5565b60405180910390fd5b5050565b6060610fa78273ffffffffffffffffffffffffffffffffffffffff16601460ff16610fae565b9050919050565b606060006002836002610fc19190611bf7565b610fcb9190611c39565b67ffffffffffffffff811115610fe457610fe36119d1565b5b6040519080825280601f01601f1916602001820160405280156110165781602001600182028036833780820191505090505b5090507f30000000000000000000000000000000000000000000000000000000000000008160008151811061104e5761104d6117de565b5b60200101907effffffffffffffffffffffffffffffffffffffffffffffffffffffffffffff1916908160001a9053507f7800000000000000000000000000000000000000000000000000000000000000816001815181106110b2576110b16117de565b5b60200101907effffffffffffffffffffffffffffffffffffffffffffffffffffffffffffff1916908160001a905350600060018460026110f29190611bf7565b6110fc9190611c39565b90505b600181111561119c577f3031323334353637383961626364656600000000000000000000000000000000600f86166010811061113e5761113d6117de565b5b1a60f81b828281518110611155576111546117de565b5b60200101907effffffffffffffffffffffffffffffffffffffffffffffffffffffffffffff1916908160001a905350600485901c94508061119590611c6d565b90506110ff565b50600084146111e0576040517f08c379a00000000000000000000000000000000000000000000000000000000081526004016111d790611ce2565b60405180910390fd5b8091505092915050565b6040518060a00160405280600073ffffffffffffffffffffffffffffffffffffffff1681526020016000815260200160008152602001600080191681526020016000600281111561123e5761123d61145f565b5b81525090565b600080fd5b60007fffffffff0000000000000000000000000000000000000000000000000000000082169050919050565b61127e81611249565b811461128957600080fd5b50565b60008135905061129b81611275565b92915050565b6000602082840312156112b7576112b6611244565b5b60006112c58482850161128c565b91505092915050565b60008115159050919050565b6112e3816112ce565b82525050565b60006020820190506112fe60008301846112da565b92915050565b6000819050919050565b61131781611304565b811461132257600080fd5b50565b6000813590506113348161130e565b92915050565b6000602082840312156113505761134f611244565b5b600061135e84828501611325565b91505092915050565b61137081611304565b82525050565b600060208201905061138b6000830184611367565b92915050565b6000819050919050565b6113a481611391565b81146113af57600080fd5b50565b6000813590506113c18161139b565b92915050565b6000602082840312156113dd576113dc611244565b5b60006113eb848285016113b2565b91505092915050565b6113fd81611391565b82525050565b600060208201905061141860008301846113f4565b92915050565b600073ffffffffffffffffffffffffffffffffffffffff82169050919050565b60006114498261141e565b9050919050565b6114598161143e565b82525050565b7f4e487b7100000000000000000000000000000000000000000000000000000000600052602160045260246000fd5b6003811061149f5761149e61145f565b5b50565b60008190506114b08261148e565b919050565b60006114c0826114a2565b9050919050565b6114d0816114b5565b82525050565b600060a0820190506114eb6000830188611450565b6114f86020830187611367565b6115056040830186611367565b61151260608301856113f4565b61151f60808301846114c7565b9695505050505050565b6115328161143e565b811461153d57600080fd5b50565b60008135905061154f81611529565b92915050565b6000806040838503121561156c5761156b611244565b5b600061157a858286016113b2565b925050602061158b85828601611540565b9150509250929050565b600080600080608085870312156115af576115ae611244565b5b60006115bd87828801611540565b94505060206115ce87828801611325565b93505060406115df87828801611325565b92505060606115f0878288016113b2565b91505092959194509250565b6003811061160957600080fd5b50565b60008135905061161b816115fc565b92915050565b60006020828403121561163757611636611244565b5b60006116458482850161160c565b91505092915050565b600081519050919050565b600082825260208201905092915050565b6000819050602082019050919050565b61168381611304565b82525050565b6000611695838361167a565b60208301905092915050565b6000602082019050919050565b60006116b98261164e565b6116c38185611659565b93506116ce8361166a565b8060005b838110156116ff5781516116e68882611689565b97506116f1836116a1565b9250506001810190506116d2565b5085935050505092915050565b6000602082019050818103600083015261172681846116ae565b905092915050565b6117378161143e565b82525050565b61174681611391565b82525050565b611755816114b5565b82525050565b60a082016000820151611771600085018261172e565b506020820151611784602085018261167a565b506040820151611797604085018261167a565b5060608201516117aa606085018261173d565b5060808201516117bd608085018261174c565b50505050565b600060a0820190506117d8600083018461175b565b92915050565b7f4e487b7100000000000000000000000000000000000000000000000000000000600052603260045260246000fd5b60006040820190506118226000830185611367565b61182f60208301846114c7565b9392505050565b600082825260208201905092915050565b7f416363657373436f6e74726f6c3a2063616e206f6e6c792072656e6f756e636560008201527f20726f6c657320666f722073656c660000000000000000000000000000000000602082015250565b60006118a3602f83611836565b91506118ae82611847565b604082019050919050565b600060208201905081810360008301526118d281611896565b9050919050565b7f496e76616c696420616d6f756e74000000000000000000000000000000000000600082015250565b600061190f600e83611836565b915061191a826118d9565b602082019050919050565b6000602082019050818103600083015261193e81611902565b9050919050565b7f4e487b7100000000000000000000000000000000000000000000000000000000600052601160045260246000fd5b600061197f82611304565b915061198a83611304565b92508282039050818111156119a2576119a1611945565b5b92915050565b60006040820190506119bd6000830185611367565b6119ca6020830184611367565b9392505050565b7f4e487b7100000000000000000000000000000000000000000000000000000000600052604160045260246000fd5b6000611a0b82611304565b91507fffffffffffffffffffffffffffffffffffffffffffffffffffffffffffffffff8203611a3d57611a3c611945565b5b600182019050919050565b600081905092915050565b7f416363657373436f6e74726f6c3a206163636f756e7420000000000000000000600082015250565b6000611a89601783611a48565b9150611a9482611a53565b601782019050919050565b600081519050919050565b60005b83811015611ac8578082015181840152602081019050611aad565b60008484015250505050565b6000611adf82611a9f565b611ae98185611a48565b9350611af9818560208601611aaa565b80840191505092915050565b7f206973206d697373696e6720726f6c6520000000000000000000000000000000600082015250565b6000611b3b601183611a48565b9150611b4682611b05565b601182019050919050565b6000611b5c82611a7c565b9150611b688285611ad4565b9150611b7382611b2e565b9150611b7f8284611ad4565b91508190509392505050565b6000601f19601f8301169050919050565b6000611ba782611a9f565b611bb18185611836565b9350611bc1818560208601611aaa565b611bca81611b8b565b840191505092915050565b60006020820190508181036000830152611bef8184611b9c565b905092915050565b6000611c0282611304565b9150611c0d83611304565b9250828202611c1b81611304565b91508282048414831517611c3257611c31611945565b5b5092915050565b6000611c4482611304565b9150611c4f83611304565b9250828201905080821115611c6757611c66611945565b5b92915050565b6000611c7882611304565b915060008203611c8b57611c8a611945565b5b600182039050919050565b7f537472696e67733a20686578206c656e67746820696e73756666696369656e74600082015250565b6000611ccc602083611836565b9150611cd782611c96565b602082019050919050565b60006020820190508181036000830152611cfb81611cbf565b905091905056fea2646970667358221220f127d1d856e647b98d85f67bc881fa4b5b1db5b6b750eed66674a980f7c12e8164736f6c63430008130033",
  "immutableReferences": {},
  "source": "pragma solidity ^0.8.19;\r\n\r\nimport \"@openzeppelin/contracts/access/AccessControl.sol\";\r\n\r\ncontract HospitalBillContract is AccessControl {\r\n    bytes32 public constant HOSPITAL_ROLE = keccak256(\"HOSPITAL_ROLE\");\r\n    bytes32 public constant REIMBURSE_ROLE = keccak256(\"REIMBURSE_ROLE\");\r\n\r\n    enum BillStatus { Submitted, Reimbursed, Rejected }\r\n\r\n    struct Bill {\r\n        address citizen;\r\n        uint256 serviceCode;\r\n        uint256 amount;\r\n        bytes32 docHash;\r\n        BillStatus status;\r\n    }\r\n\r\n    Bill[] public bills;\r\n\r\n    event BillSubmitted(uint256 billId, address indexed citizen, uint256 amount);\r\n    event BillStatusChanged(uint256 billId, BillStatus newStatus);\r\n\r\n    constructor() {\r\n        _grantRole(DEFAULT_ADMIN_ROLE, msg.sender);\r\n        _grantRole(HOSPITAL_ROLE, msg.sender);\r\n    }\r\n\r\n    function submitBill(\r\n        address citizen,\r\n        uint256 serviceCode,\r\n        uint256 amount,\r\n        bytes32 docHash\r\n    ) external onlyRole(HOSPITAL_ROLE) returns (uint256 billId) {\r\n        require(amount > 0, \"Invalid amount\");\r\n        bills.push(Bill(citizen, serviceCode, amount, docHash, BillStatus.Submitted));\r\n        billId = bills.length - 1;\r\n        emit BillSubmitted(billId, citizen, amount);\r\n    }\r\n\r\n    function getBill(uint256 billId) external view returns (Bill memory) {\r\n        return bills[billId];\r\n    }\r\n\r\n    function markReimbursed(uint256 billId) external onlyRole(REIMBURSE_ROLE) {\r\n        bills[billId].status = BillStatus.Reimbursed;\r\n        emit BillStatusChanged(billId, BillStatus.Reimbursed);\r\n    }\r\n\r\n    function markRejected(uint256 billId) external onlyRole(REIMBURSE_ROLE) {\r\n        bills[billId].status = BillStatus.Rejected;\r\n        emit BillStatusChanged(billId, BillStatus.Rejected);\r\n    }\r\n\r\n    // \r\n    function getBillCount() external view returns (uint256) {\r\n        return bills.length;\r\n    }\r\n\r\n    // \r\n    function getBillsByStatus(BillStatus status) external view returns (uint256[] memory) {\r\n        uint256[] memory tempBills = new uint256[](bills.length);\r\n        uint256 count = 0;\r\n        \r\n        for (uint256 i = 0; i < bills.length; i++) {\r\n            if (bills[i].status == status) {\r\n                tempBills[count] = i;\r\n                count++;\r\n            }\r\n        }\r\n        \r\n        // \r\n        uint256[] memory result = new uint256[](count);\r\n        for (uint256 i = 0; i < count; i++) {\r\n            result[i] = tempBills[i];\r\n        }\r\n        \r\n        return result;\r\n    }\r\n\r\n    // ID\r\n    function getAllBills() external view returns (uint256[] memory) {\r\n        uint256[] memory result = new uint256[](bills.length);\r\n        for (uint256 i = 0; i < bills.length; i++) {\r\n            result[i] = i;\r\n        }\r\n        return result;\r\n    }\r\n}\r\n",
  "sourcePath": "D:\\Blockchain A2\\BlockchainTeam2\\Contracts\\HospitalBillContract.sol",
  "compiler": {
    "name": "solc",
    "version": "0.8.19+commit.7dd6d404.Emscripten.clang"
  },
  "schemaVersion": "3.4.16",
  "updatedAt": "2025-11-03T19:27:30.588Z",
  "networkType": "ethereum",
  "devdoc": {
    "events": {
      "RoleAdminChanged(bytes32,bytes32,bytes32)": {
        "details": "Emitted when `newAdminRole` is set as ``role``'s admin role, replacing `previousAdminRole` `DEFAULT_ADMIN_ROLE` is the starting admin for all roles, despite {RoleAdminChanged} not being emitted signaling this. _Available since v3.1._"
      },
      "RoleGranted(bytes32,address,address)": {
        "details": "Emitted when `account` is granted `role`. `sender` is the account that originated the contract call, an admin role bearer except when using {AccessControl-_setupRole}."
      },
      "RoleRevoked(bytes32,address,address)": {
        "details": "Emitted when `account` is revoked `role`. `sender` is the account that originated the contract call:   - if using `revokeRole`, it is the admin role bearer   - if using `renounceRole`, it is the role bearer (i.e. `account`)"
      }
    },
    "kind": "dev",
    "methods": {
      "getRoleAdmin(bytes32)": {
        "details": "Returns the admin role that controls `role`. See {grantRole} and {revokeRole}. To change a role's admin, use {_setRoleAdmin}."
      },
      "grantRole(bytes32,address)": {
        "details": "Grants `role` to `account`. If `account` had not been already granted `role`, emits a {RoleGranted} event. Requirements: - the caller must have ``role``'s admin role. May emit a {RoleGranted} event."
      },
      "hasRole(bytes32,address)": {
        "details": "Returns `true` if `account` has been granted `role`."
      },
      "renounceRole(bytes32,address)": {
        "details": "Revokes `role` from the calling account. Roles are often managed via {grantRole} and {revokeRole}: this function's purpose is to provide a mechanism for accounts to lose their privileges if they are compromised (such as when a trusted device is misplaced). If the calling account had been revoked `role`, emits a {RoleRevoked} event. Requirements: - the caller must be `account`. May emit a {RoleRevoked} event."
      },
      "revokeRole(bytes32,address)": {
        "details": "Revokes `role` from `account`. If `account` had been granted `role`, emits a {RoleRevoked} event. Requirements: - the caller must have ``role``'s admin role. May emit a {RoleRevoked} event."
      },
      "supportsInterface(bytes4)": {
        "details": "See {IERC165-supportsInterface}."
      }
    },
    "version": 1
  },
  "userdoc": {
    "kind": "user",
    "methods": {},
    "version": 1
  }
}