{
  "contractName": "InsuranceRegistry",
  "abi": [
    {
      "inputs": [],
      "stateMutability": "nonpayable",
      "type": "constructor"
    },
    {
      "anonymous": false,
      "inputs": [
        {
          "indexed": true,
          "internalType": "address",
          "name": "citizen",
          "type": "address"
        },
        {
          "indexed": false,
          "internalType": "uint256",
          "name": "planId",
          "type": "uint256"
        }
      ],
      "name": "CitizenRegistered",
      "type": "event"
    },
    {
      "anonymous": false,
      "inputs": [
        {
          "indexed": false,
          "internalType": "uint256",
          "name": "planId",
          "type": "uint256"
        }
      ],
      "name": "PlanUpdated",
      "type": "event"
    },
    {
      "anonymous": false,
      "inputs": [
        {
          "indexed": true,
          "internalType": "bytes32",
          "name": "role",
          "type": "bytes32"
        },
        {
          "indexed": true,
          "internalType": "bytes32",
          "name": "previousAdminRole",
          "type": "bytes32"
        },
        {
          "indexed": true,
          "internalType": "bytes32",
          "name": "newAdminRole",
          "type": "bytes32"
        }
      ],
      "name": "RoleAdminChanged",
      "type": "event"
    },
    {
      "anonymous": false,
      "inputs": [
        {
          "indexed": true,
          "internalType": "bytes32",
          "name": "role",
          "type": "bytes32"
        },
        {
          "indexed": true,
          "internalType": "address",
          "name": "account",
          "type": "address"
        },
        {
          "indexed": true,
          "internalType": "address",
          "name": "sender",
          "type": "address"
        }
      ],
      "name": "RoleGranted",
      "type": "event"
    },
    {
      "anonymous": false,
      "inputs": [
        {
          "indexed": true,
          "internalType": "bytes32",
          "name": "role",
          "type": "bytes32"
        },
        {
          "indexed": true,
          "internalType": "address",
          "name": "account",
          "type": "address"
        },
        {
          "indexed": true,
          "internalType": "address",
          "name": "sender",
          "type": "address"
        }
      ],
      "name": "RoleRevoked",
      "type": "event"
    },
    {
      "inputs": [],
      "name": "DEFAULT_ADMIN_ROLE",
      "outputs": [
        {
          "internalType": "bytes32",
          "name": "",
          "type": "bytes32"
        }
      ],
      "stateMutability": "view",
      "type": "function",
      "constant": true
    },
    {
      "inputs": [],
      "name": "GOV_ROLE",
      "outputs": [
        {
          "internalType": "bytes32",
          "name": "",
          "type": "bytes32"
        }
      ],
      "stateMutability": "view",
      "type": "function",
      "constant": true
    },
    {
      "inputs": [
        {
          "internalType": "address",
          "name": "",
          "type": "address"
        }
      ],
      "name": "citizenPlan",
      "outputs": [
        {
          "internalType": "uint256",
          "name": "",
          "type": "uint256"
        }
      ],
      "stateMutability": "view",
      "type": "function",
      "constant": true
    },
    {
      "inputs": [
        {
          "internalType": "bytes32",
          "name": "role",
          "type": "bytes32"
        }
      ],
      "name": "getRoleAdmin",
      "outputs": [
        {
          "internalType": "bytes32",
          "name": "",
          "type": "bytes32"
        }
      ],
      "stateMutability": "view",
      "type": "function",
      "constant": true
    },
    {
      "inputs": [
        {
          "internalType": "bytes32",
          "name": "role",
          "type": "bytes32"
        },
        {
          "internalType": "address",
          "name": "account",
          "type": "address"
        }
      ],
      "name": "grantRole",
      "outputs": [],
      "stateMutability": "nonpayable",
      "type": "function"
    },
    {
      "inputs": [
        {
          "internalType": "bytes32",
          "name": "role",
          "type": "bytes32"
        },
        {
          "internalType": "address",
          "name": "account",
          "type": "address"
        }
      ],
      "name": "hasRole",
      "outputs": [
        {
          "internalType": "bool",
          "name": "",
          "type": "bool"
        }
      ],
      "stateMutability": "view",
      "type": "function",
      "constant": true
    },
    {
      "inputs": [
        {
          "internalType": "uint256",
          "name": "",
          "type": "uint256"
        }
      ],
      "name": "plans",
      "outputs": [
        {
          "internalType": "uint16",
          "name": "copayBps",
          "type": "uint16"
        },
        {
          "internalType": "uint256",
          "name": "deductible",
          "type": "uint256"
        },
        {
          "internalType": "uint256",
          "name": "coverageLimit",
          "type": "uint256"
        }
      ],
      "stateMutability": "view",
      "type": "function",
      "constant": true
    },
    {
      "inputs": [
        {
          "internalType": "bytes32",
          "name": "role",
          "type": "bytes32"
        },
        {
          "internalType": "address",
          "name": "account",
          "type": "address"
        }
      ],
      "name": "renounceRole",
      "outputs": [],
      "stateMutability": "nonpayable",
      "type": "function"
    },
    {
      "inputs": [
        {
          "internalType": "bytes32",
          "name": "role",
          "type": "bytes32"
        },
        {
          "internalType": "address",
          "name": "account",
          "type": "address"
        }
      ],
      "name": "revokeRole",
      "outputs": [],
      "stateMutability": "nonpayable",
      "type": "function"
    },
    {
      "inputs": [
        {
          "internalType": "bytes4",
          "name": "interfaceId",
          "type": "bytes4"
        }
      ],
      "name": "supportsInterface",
      "outputs": [
        {
          "internalType": "bool",
          "name": "",
          "type": "bool"
        }
      ],
      "stateMutability": "view",
      "type": "function",
      "constant": true
    },
    {
      "inputs": [
        {
          "internalType": "address",
          "name": "",
          "type": "address"
        }
      ],
      "name": "totalPaid",
      "outputs": [
        {
          "internalType": "uint256",
          "name": "",
          "type": "uint256"
        }
      ],
      "stateMutability": "view",
      "type": "function",
      "constant": true
    },
    {
      "inputs": [
        {
          "internalType": "uint256",
          "name": "planId",
          "type": "uint256"
        },
        {
          "components": [
            {
              "internalType": "uint16",
              "name": "copayBps",
              "type": "uint16"
            },
            {
              "internalType": "uint256",
              "name": "deductible",
              "type": "uint256"
            },
            {
              "internalType": "uint256",
              "name": "coverageLimit",
              "type": "uint256"
            }
          ],
          "internalType": "struct InsuranceRegistry.Plan",
          "name": "p",
          "type": "tuple"
        }
      ],
      "name": "setPlan",
      "outputs": [],
      "stateMutability": "nonpayable",
      "type": "function"
    },
    {
      "inputs": [
        {
          "internalType": "address",
          "name": "citizen",
          "type": "address"
        },
        {
          "internalType": "uint256",
          "name": "planId",
          "type": "uint256"
        }
      ],
      "name": "registerCitizen",
      "outputs": [],
      "stateMutability": "nonpayable",
      "type": "function"
    },
    {
      "inputs": [
        {
          "internalType": "address",
          "name": "citizen",
          "type": "address"
        },
        {
          "internalType": "uint256",
          "name": "amount",
          "type": "uint256"
        }
      ],
      "name": "addPaid",
      "outputs": [],
      "stateMutability": "nonpayable",
      "type": "function"
    },
    {
      "inputs": [
        {
          "internalType": "address",
          "name": "citizen",
          "type": "address"
        }
      ],
      "name": "getPlanOf",
      "outputs": [
        {
          "internalType": "uint256",
          "name": "planId",
          "type": "uint256"
        },
        {
          "components": [
            {
              "internalType": "uint16",
              "name": "copayBps",
              "type": "uint16"
            },
            {
              "internalType": "uint256",
              "name": "deductible",
              "type": "uint256"
            },
            {
              "internalType": "uint256",
              "name": "coverageLimit",
              "type": "uint256"
            }
          ],
          "internalType": "struct InsuranceRegistry.Plan",
          "name": "p",
          "type": "tuple"
        }
      ],
      "stateMutability": "view",
      "type": "function",
      "constant": true
    }
  ],
  "bytecode": "0x60806040523480156200001157600080fd5b50620000276000801b336200005f60201b60201c565b620000597f0603f2636f0ca34ae3ea5a23bb826e2bd2ffd59fb1c01edc1ba10fba2899d1ba336200005f60201b60201c565b620001c2565b6200007182826200015060201b60201c565b6200014c57600160008084815260200190815260200160002060000160008373ffffffffffffffffffffffffffffffffffffffff1673ffffffffffffffffffffffffffffffffffffffff16815260200190815260200160002060006101000a81548160ff021916908315150217905550620000f1620001ba60201b60201c565b73ffffffffffffffffffffffffffffffffffffffff168173ffffffffffffffffffffffffffffffffffffffff16837f2f8788117e7eff1d82e926ec794901d17c78024a50270940304540a733656f0d60405160405180910390a45b5050565b600080600084815260200190815260200160002060000160008373ffffffffffffffffffffffffffffffffffffffff1673ffffffffffffffffffffffffffffffffffffffff16815260200190815260200160002060009054906101000a900460ff16905092915050565b600033905090565b61183880620001d26000396000f3fe608060405234801561001057600080fd5b50600436106100f55760003560e01c806391d1485411610097578063b162061611610066578063b1620616146102a9578063b3bf3632146102db578063b536818a146102f7578063d547741f14610315576100f5565b806391d1485414610223578063a217fddf14610253578063a9218ed714610271578063addfb60e1461028d576100f5565b80632f2ff15d116100d35780632f2ff15d1461018a57806336568abe146101a6578063382525a1146101c25780633dd6d533146101f3576100f5565b806301ad6fac146100fa57806301ffc9a71461012a578063248a9ca31461015a575b600080fd5b610114600480360381019061010f9190610e16565b610331565b6040516101219190610e5c565b60405180910390f35b610144600480360381019061013f9190610ecf565b610349565b6040516101519190610f17565b60405180910390f35b610174600480360381019061016f9190610f68565b6103c3565b6040516101819190610fa4565b60405180910390f35b6101a4600480360381019061019f9190610fbf565b6103e2565b005b6101c060048036038101906101bb9190610fbf565b610403565b005b6101dc60048036038101906101d79190610e16565b610486565b6040516101ea92919061106d565b60405180910390f35b61020d60048036038101906102089190610e16565b61052b565b60405161021a9190610e5c565b60405180910390f35b61023d60048036038101906102389190610fbf565b610543565b60405161024a9190610f17565b60405180910390f35b61025b6105ad565b6040516102689190610fa4565b60405180910390f35b61028b600480360381019061028691906110c2565b6105b4565b005b6102a760048036038101906102a29190611126565b610639565b005b6102c360048036038101906102be9190611166565b6106c2565b6040516102d2939291906111a2565b60405180910390f35b6102f560048036038101906102f091906110c2565b6106fa565b005b6102ff610814565b60405161030c9190610fa4565b60405180910390f35b61032f600480360381019061032a9190610fbf565b610838565b005b60026020528060005260406000206000915090505481565b60007f7965db0b000000000000000000000000000000000000000000000000000000007bffffffffffffffffffffffffffffffffffffffffffffffffffffffff1916827bffffffffffffffffffffffffffffffffffffffffffffffffffffffff191614806103bc57506103bb82610859565b5b9050919050565b6000806000838152602001908152602001600020600101549050919050565b6103eb826103c3565b6103f4816108c3565b6103fe83836108d7565b505050565b61040b6109b7565b73ffffffffffffffffffffffffffffffffffffffff168173ffffffffffffffffffffffffffffffffffffffff1614610478576040517f08c379a000000000000000000000000000000000000000000000000000000000815260040161046f9061125c565b60405180910390fd5b61048282826109bf565b5050565b6000610490610d8e565b600260008473ffffffffffffffffffffffffffffffffffffffff1673ffffffffffffffffffffffffffffffffffffffff168152602001908152602001600020549150600160008381526020019081526020016000206040518060600160405290816000820160009054906101000a900461ffff1661ffff1661ffff168152602001600182015481526020016002820154815250509050915091565b60036020528060005260406000206000915090505481565b600080600084815260200190815260200160002060000160008373ffffffffffffffffffffffffffffffffffffffff1673ffffffffffffffffffffffffffffffffffffffff16815260200190815260200160002060009054906101000a900460ff16905092915050565b6000801b81565b7f0603f2636f0ca34ae3ea5a23bb826e2bd2ffd59fb1c01edc1ba10fba2899d1ba6105de816108c3565b81600360008573ffffffffffffffffffffffffffffffffffffffff1673ffffffffffffffffffffffffffffffffffffffff168152602001908152602001600020600082825461062d91906112ab565b92505081905550505050565b7f0603f2636f0ca34ae3ea5a23bb826e2bd2ffd59fb1c01edc1ba10fba2899d1ba610663816108c3565b8160016000858152602001908152602001600020818161068391906114a4565b9050507f4dcaaa174092e910e7ba2fdf855e12a8d0c4b034ffcb76181b145ec8d53b87ff836040516106b59190610e5c565b60405180910390a1505050565b60016020528060005260406000206000915090508060000160009054906101000a900461ffff16908060010154908060020154905083565b7f0603f2636f0ca34ae3ea5a23bb826e2bd2ffd59fb1c01edc1ba10fba2899d1ba610724816108c3565b600060016000848152602001908152602001600020600201541161077d576040517f08c379a0000000000000000000000000000000000000000000000000000000008152600401610774906114fe565b60405180910390fd5b81600260008573ffffffffffffffffffffffffffffffffffffffff1673ffffffffffffffffffffffffffffffffffffffff168152602001908152602001600020819055508273ffffffffffffffffffffffffffffffffffffffff167f9f4e1c382cdd9fb482444097babab40742f8a3624c0ab69305c3c396f26794b8836040516108079190610e5c565b60405180910390a2505050565b7f0603f2636f0ca34ae3ea5a23bb826e2bd2ffd59fb1c01edc1ba10fba2899d1ba81565b610841826103c3565b61084a816108c3565b61085483836109bf565b505050565b60007f01ffc9a7000000000000000000000000000000000000000000000000000000007bffffffffffffffffffffffffffffffffffffffffffffffffffffffff1916827bffffffffffffffffffffffffffffffffffffffffffffffffffffffff1916149050919050565b6108d4816108cf6109b7565b610aa0565b50565b6108e18282610543565b6109b357600160008084815260200190815260200160002060000160008373ffffffffffffffffffffffffffffffffffffffff1673ffffffffffffffffffffffffffffffffffffffff16815260200190815260200160002060006101000a81548160ff0219169083151502179055506109586109b7565b73ffffffffffffffffffffffffffffffffffffffff168173ffffffffffffffffffffffffffffffffffffffff16837f2f8788117e7eff1d82e926ec794901d17c78024a50270940304540a733656f0d60405160405180910390a45b5050565b600033905090565b6109c98282610543565b15610a9c57600080600084815260200190815260200160002060000160008373ffffffffffffffffffffffffffffffffffffffff1673ffffffffffffffffffffffffffffffffffffffff16815260200190815260200160002060006101000a81548160ff021916908315150217905550610a416109b7565b73ffffffffffffffffffffffffffffffffffffffff168173ffffffffffffffffffffffffffffffffffffffff16837ff6391f5c32d9c69d2a47ea670b442974b53935d1edc7fd64eb21e047a839171b60405160405180910390a45b5050565b610aaa8282610543565b610b2157610ab781610b25565b610ac58360001c6020610b52565b604051602001610ad6929190611627565b6040516020818303038152906040526040517f08c379a0000000000000000000000000000000000000000000000000000000008152600401610b1891906116ab565b60405180910390fd5b5050565b6060610b4b8273ffffffffffffffffffffffffffffffffffffffff16601460ff16610b52565b9050919050565b606060006002836002610b6591906116cd565b610b6f91906112ab565b67ffffffffffffffff811115610b8857610b8761170f565b5b6040519080825280601f01601f191660200182016040528015610bba5781602001600182028036833780820191505090505b5090507f300000000000000000000000000000000000000000000000000000000000000081600081518110610bf257610bf161173e565b5b60200101907effffffffffffffffffffffffffffffffffffffffffffffffffffffffffffff1916908160001a9053507f780000000000000000000000000000000000000000000000000000000000000081600181518110610c5657610c5561173e565b5b60200101907effffffffffffffffffffffffffffffffffffffffffffffffffffffffffffff1916908160001a90535060006001846002610c9691906116cd565b610ca091906112ab565b90505b6001811115610d40577f3031323334353637383961626364656600000000000000000000000000000000600f861660108110610ce257610ce161173e565b5b1a60f81b828281518110610cf957610cf861173e565b5b60200101907effffffffffffffffffffffffffffffffffffffffffffffffffffffffffffff1916908160001a905350600485901c945080610d399061176d565b9050610ca3565b5060008414610d84576040517f08c379a0000000000000000000000000000000000000000000000000000000008152600401610d7b906117e2565b60405180910390fd5b8091505092915050565b6040518060600160405280600061ffff16815260200160008152602001600081525090565b600080fd5b600073ffffffffffffffffffffffffffffffffffffffff82169050919050565b6000610de382610db8565b9050919050565b610df381610dd8565b8114610dfe57600080fd5b50565b600081359050610e1081610dea565b92915050565b600060208284031215610e2c57610e2b610db3565b5b6000610e3a84828501610e01565b91505092915050565b6000819050919050565b610e5681610e43565b82525050565b6000602082019050610e716000830184610e4d565b92915050565b60007fffffffff0000000000000000000000000000000000000000000000000000000082169050919050565b610eac81610e77565b8114610eb757600080fd5b50565b600081359050610ec981610ea3565b92915050565b600060208284031215610ee557610ee4610db3565b5b6000610ef384828501610eba565b91505092915050565b60008115159050919050565b610f1181610efc565b82525050565b6000602082019050610f2c6000830184610f08565b92915050565b6000819050919050565b610f4581610f32565b8114610f5057600080fd5b50565b600081359050610f6281610f3c565b92915050565b600060208284031215610f7e57610f7d610db3565b5b6000610f8c84828501610f53565b91505092915050565b610f9e81610f32565b82525050565b6000602082019050610fb96000830184610f95565b92915050565b60008060408385031215610fd657610fd5610db3565b5b6000610fe485828601610f53565b9250506020610ff585828601610e01565b9150509250929050565b600061ffff82169050919050565b61101681610fff565b82525050565b61102581610e43565b82525050565b606082016000820151611041600085018261100d565b506020820151611054602085018261101c565b506040820151611067604085018261101c565b50505050565b60006080820190506110826000830185610e4d565b61108f602083018461102b565b9392505050565b61109f81610e43565b81146110aa57600080fd5b50565b6000813590506110bc81611096565b92915050565b600080604083850312156110d9576110d8610db3565b5b60006110e785828601610e01565b92505060206110f8858286016110ad565b9150509250929050565b600080fd5b60006060828403121561111d5761111c611102565b5b81905092915050565b6000806080838503121561113d5761113c610db3565b5b600061114b858286016110ad565b925050602061115c85828601611107565b9150509250929050565b60006020828403121561117c5761117b610db3565b5b600061118a848285016110ad565b91505092915050565b61119c81610fff565b82525050565b60006060820190506111b76000830186611193565b6111c46020830185610e4d565b6111d16040830184610e4d565b949350505050565b600082825260208201905092915050565b7f416363657373436f6e74726f6c3a2063616e206f6e6c792072656e6f756e636560008201527f20726f6c657320666f722073656c660000000000000000000000000000000000602082015250565b6000611246602f836111d9565b9150611251826111ea565b604082019050919050565b6000602082019050818103600083015261127581611239565b9050919050565b7f4e487b7100000000000000000000000000000000000000000000000000000000600052601160045260246000fd5b60006112b682610e43565b91506112c183610e43565b92508282019050808211156112d9576112d861127c565b5b92915050565b6112e881610fff565b81146112f357600080fd5b50565b60008135611303816112df565b80915050919050565b60008160001b9050919050565b600061ffff6113278461130c565b9350801983169250808416831791505092915050565b6000819050919050565b600061136261135d61135884610fff565b61133d565b610fff565b9050919050565b6000819050919050565b61137c82611347565b61138f61138882611369565b8354611319565b8255505050565b600081356113a381611096565b80915050919050565b60007fffffffffffffffffffffffffffffffffffffffffffffffffffffffffffffffff6113d88461130c565b9350801983169250808416831791505092915050565b60006114096114046113ff84610e43565b61133d565b610e43565b9050919050565b6000819050919050565b611423826113ee565b61143661142f82611410565b83546113ac565b8255505050565b60008101600083018061144f816112f6565b905061145b8184611373565b50505060018101602083018061147081611396565b905061147c818461141a565b50505060028101604083018061149181611396565b905061149d818461141a565b5050505050565b6114ae828261143d565b5050565b7f496e76616c696420706c616e0000000000000000000000000000000000000000600082015250565b60006114e8600c836111d9565b91506114f3826114b2565b602082019050919050565b60006020820190508181036000830152611517816114db565b9050919050565b600081905092915050565b7f416363657373436f6e74726f6c3a206163636f756e7420000000000000000000600082015250565b600061155f60178361151e565b915061156a82611529565b601782019050919050565b600081519050919050565b60005b8381101561159e578082015181840152602081019050611583565b60008484015250505050565b60006115b582611575565b6115bf818561151e565b93506115cf818560208601611580565b80840191505092915050565b7f206973206d697373696e6720726f6c6520000000000000000000000000000000600082015250565b600061161160118361151e565b915061161c826115db565b601182019050919050565b600061163282611552565b915061163e82856115aa565b915061164982611604565b915061165582846115aa565b91508190509392505050565b6000601f19601f8301169050919050565b600061167d82611575565b61168781856111d9565b9350611697818560208601611580565b6116a081611661565b840191505092915050565b600060208201905081810360008301526116c58184611672565b905092915050565b60006116d882610e43565b91506116e383610e43565b92508282026116f181610e43565b915082820484148315176117085761170761127c565b5b5092915050565b7f4e487b7100000000000000000000000000000000000000000000000000000000600052604160045260246000fd5b7f4e487b7100000000000000000000000000000000000000000000000000000000600052603260045260246000fd5b600061177882610e43565b91506000820361178b5761178a61127c565b5b600182039050919050565b7f537472696e67733a20686578206c656e67746820696e73756666696369656e74600082015250565b60006117cc6020836111d9565b91506117d782611796565b602082019050919050565b600060208201905081810360008301526117fb816117bf565b905091905056fea2646970667358221220b428fdb4eb9115da5995439da91396841bd46450f28936ab7004e604c50ce66164736f6c63430008130033",
  "immutableReferences": {},
  "source": "pragma solidity ^0.8.19;\r\n\r\nimport \"@openzeppelin/contracts/access/AccessControl.sol\";\r\n\r\ncontract InsuranceRegistry is AccessControl {\r\n    bytes32 public constant GOV_ROLE = keccak256(\"GOV_ROLE\");\r\n\r\n    struct Plan {\r\n        uint16 copayBps;\r\n        uint256 deductible;\r\n        uint256 coverageLimit;\r\n    }\r\n\r\n    mapping(uint256 => Plan) public plans;\r\n    mapping(address => uint256) public citizenPlan;\r\n    mapping(address => uint256) public totalPaid;\r\n\r\n    event CitizenRegistered(address indexed citizen, uint256 planId);\r\n    event PlanUpdated(uint256 planId);\r\n\r\n    constructor() {\r\n        _grantRole(DEFAULT_ADMIN_ROLE, msg.sender);\r\n        _grantRole(GOV_ROLE, msg.sender);\r\n    }\r\n\r\n    function setPlan(uint256 planId, Plan calldata p) external onlyRole(GOV_ROLE) {\r\n        plans[planId] = p;\r\n        emit PlanUpdated(planId);\r\n    }\r\n\r\n    function registerCitizen(address citizen, uint256 planId) external onlyRole(GOV_ROLE) {\r\n        require(plans[planId].coverageLimit > 0, \"Invalid plan\");\r\n        citizenPlan[citizen] = planId;\r\n        emit CitizenRegistered(citizen, planId);\r\n    }\r\n\r\n    function addPaid(address citizen, uint256 amount) external onlyRole(GOV_ROLE) {\r\n        totalPaid[citizen] += amount;\r\n    }\r\n\r\n    function getPlanOf(address citizen) external view returns (uint256 planId, Plan memory p) {\r\n        planId = citizenPlan[citizen];\r\n        p = plans[planId];\r\n    }\r\n}\r\n",
  "sourcePath": "D:\\Githubproj\\BlockchainTeam2\\Contracts\\InsuranceRegistry.sol",
  "compiler": {
    "name": "solc",
    "version": "0.8.19+commit.7dd6d404.Emscripten.clang"
  },
  "schemaVersion": "3.4.16",
  "updatedAt": "2025-10-31T15:39:26.356Z",
  "networkType": "ethereum",
  "devdoc": {
    "events": {
      "RoleAdminChanged(bytes32,bytes32,bytes32)": {
        "details": "Emitted when `newAdminRole` is set as ``role``'s admin role, replacing `previousAdminRole` `DEFAULT_ADMIN_ROLE` is the starting admin for all roles, despite {RoleAdminChanged} not being emitted signaling this. _Available since v3.1._"
      },
      "RoleGranted(bytes32,address,address)": {
        "details": "Emitted when `account` is granted `role`. `sender` is the account that originated the contract call, an admin role bearer except when using {AccessControl-_setupRole}."
      },
      "RoleRevoked(bytes32,address,address)": {
        "details": "Emitted when `account` is revoked `role`. `sender` is the account that originated the contract call:   - if using `revokeRole`, it is the admin role bearer   - if using `renounceRole`, it is the role bearer (i.e. `account`)"
      }
    },
    "kind": "dev",
    "methods": {
      "getRoleAdmin(bytes32)": {
        "details": "Returns the admin role that controls `role`. See {grantRole} and {revokeRole}. To change a role's admin, use {_setRoleAdmin}."
      },
      "grantRole(bytes32,address)": {
        "details": "Grants `role` to `account`. If `account` had not been already granted `role`, emits a {RoleGranted} event. Requirements: - the caller must have ``role``'s admin role. May emit a {RoleGranted} event."
      },
      "hasRole(bytes32,address)": {
        "details": "Returns `true` if `account` has been granted `role`."
      },
      "renounceRole(bytes32,address)": {
        "details": "Revokes `role` from the calling account. Roles are often managed via {grantRole} and {revokeRole}: this function's purpose is to provide a mechanism for accounts to lose their privileges if they are compromised (such as when a trusted device is misplaced). If the calling account had been revoked `role`, emits a {RoleRevoked} event. Requirements: - the caller must be `account`. May emit a {RoleRevoked} event."
      },
      "revokeRole(bytes32,address)": {
        "details": "Revokes `role` from `account`. If `account` had been granted `role`, emits a {RoleRevoked} event. Requirements: - the caller must have ``role``'s admin role. May emit a {RoleRevoked} event."
      },
      "supportsInterface(bytes4)": {
        "details": "See {IERC165-supportsInterface}."
      }
    },
    "version": 1
  },
  "userdoc": {
    "kind": "user",
    "methods": {},
    "version": 1
  }
}