{
  "contractName": "InsuranceRegistry",
  "abi": [
    {
      "inputs": [],
      "stateMutability": "nonpayable",
      "type": "constructor"
    },
    {
      "anonymous": false,
      "inputs": [
        {
          "indexed": true,
          "internalType": "address",
          "name": "citizen",
          "type": "address"
        },
        {
          "indexed": false,
          "internalType": "uint256",
          "name": "planId",
          "type": "uint256"
        }
      ],
      "name": "CitizenRegistered",
      "type": "event"
    },
    {
      "anonymous": false,
      "inputs": [
        {
          "indexed": true,
          "internalType": "address",
          "name": "citizen",
          "type": "address"
        }
      ],
      "name": "CitizenTerminated",
      "type": "event"
    },
    {
      "anonymous": false,
      "inputs": [
        {
          "indexed": false,
          "internalType": "uint256",
          "name": "planId",
          "type": "uint256"
        }
      ],
      "name": "PlanUpdated",
      "type": "event"
    },
    {
      "anonymous": false,
      "inputs": [
        {
          "indexed": true,
          "internalType": "bytes32",
          "name": "role",
          "type": "bytes32"
        },
        {
          "indexed": true,
          "internalType": "bytes32",
          "name": "previousAdminRole",
          "type": "bytes32"
        },
        {
          "indexed": true,
          "internalType": "bytes32",
          "name": "newAdminRole",
          "type": "bytes32"
        }
      ],
      "name": "RoleAdminChanged",
      "type": "event"
    },
    {
      "anonymous": false,
      "inputs": [
        {
          "indexed": true,
          "internalType": "bytes32",
          "name": "role",
          "type": "bytes32"
        },
        {
          "indexed": true,
          "internalType": "address",
          "name": "account",
          "type": "address"
        },
        {
          "indexed": true,
          "internalType": "address",
          "name": "sender",
          "type": "address"
        }
      ],
      "name": "RoleGranted",
      "type": "event"
    },
    {
      "anonymous": false,
      "inputs": [
        {
          "indexed": true,
          "internalType": "bytes32",
          "name": "role",
          "type": "bytes32"
        },
        {
          "indexed": true,
          "internalType": "address",
          "name": "account",
          "type": "address"
        },
        {
          "indexed": true,
          "internalType": "address",
          "name": "sender",
          "type": "address"
        }
      ],
      "name": "RoleRevoked",
      "type": "event"
    },
    {
      "inputs": [],
      "name": "DEFAULT_ADMIN_ROLE",
      "outputs": [
        {
          "internalType": "bytes32",
          "name": "",
          "type": "bytes32"
        }
      ],
      "stateMutability": "view",
      "type": "function",
      "constant": true
    },
    {
      "inputs": [],
      "name": "GOV_ROLE",
      "outputs": [
        {
          "internalType": "bytes32",
          "name": "",
          "type": "bytes32"
        }
      ],
      "stateMutability": "view",
      "type": "function",
      "constant": true
    },
    {
      "inputs": [
        {
          "internalType": "address",
          "name": "",
          "type": "address"
        }
      ],
      "name": "citizenPlan",
      "outputs": [
        {
          "internalType": "uint256",
          "name": "",
          "type": "uint256"
        }
      ],
      "stateMutability": "view",
      "type": "function",
      "constant": true
    },
    {
      "inputs": [
        {
          "internalType": "bytes32",
          "name": "role",
          "type": "bytes32"
        }
      ],
      "name": "getRoleAdmin",
      "outputs": [
        {
          "internalType": "bytes32",
          "name": "",
          "type": "bytes32"
        }
      ],
      "stateMutability": "view",
      "type": "function",
      "constant": true
    },
    {
      "inputs": [
        {
          "internalType": "bytes32",
          "name": "role",
          "type": "bytes32"
        },
        {
          "internalType": "address",
          "name": "account",
          "type": "address"
        }
      ],
      "name": "grantRole",
      "outputs": [],
      "stateMutability": "nonpayable",
      "type": "function"
    },
    {
      "inputs": [
        {
          "internalType": "bytes32",
          "name": "role",
          "type": "bytes32"
        },
        {
          "internalType": "address",
          "name": "account",
          "type": "address"
        }
      ],
      "name": "hasRole",
      "outputs": [
        {
          "internalType": "bool",
          "name": "",
          "type": "bool"
        }
      ],
      "stateMutability": "view",
      "type": "function",
      "constant": true
    },
    {
      "inputs": [
        {
          "internalType": "uint256",
          "name": "",
          "type": "uint256"
        }
      ],
      "name": "plans",
      "outputs": [
        {
          "internalType": "uint16",
          "name": "copayBps",
          "type": "uint16"
        },
        {
          "internalType": "uint256",
          "name": "deductible",
          "type": "uint256"
        },
        {
          "internalType": "uint256",
          "name": "coverageLimit",
          "type": "uint256"
        }
      ],
      "stateMutability": "view",
      "type": "function",
      "constant": true
    },
    {
      "inputs": [],
      "name": "reimbursementContract",
      "outputs": [
        {
          "internalType": "address",
          "name": "",
          "type": "address"
        }
      ],
      "stateMutability": "view",
      "type": "function",
      "constant": true
    },
    {
      "inputs": [
        {
          "internalType": "bytes32",
          "name": "role",
          "type": "bytes32"
        },
        {
          "internalType": "address",
          "name": "account",
          "type": "address"
        }
      ],
      "name": "renounceRole",
      "outputs": [],
      "stateMutability": "nonpayable",
      "type": "function"
    },
    {
      "inputs": [
        {
          "internalType": "bytes32",
          "name": "role",
          "type": "bytes32"
        },
        {
          "internalType": "address",
          "name": "account",
          "type": "address"
        }
      ],
      "name": "revokeRole",
      "outputs": [],
      "stateMutability": "nonpayable",
      "type": "function"
    },
    {
      "inputs": [
        {
          "internalType": "bytes4",
          "name": "interfaceId",
          "type": "bytes4"
        }
      ],
      "name": "supportsInterface",
      "outputs": [
        {
          "internalType": "bool",
          "name": "",
          "type": "bool"
        }
      ],
      "stateMutability": "view",
      "type": "function",
      "constant": true
    },
    {
      "inputs": [
        {
          "internalType": "address",
          "name": "",
          "type": "address"
        }
      ],
      "name": "terminated",
      "outputs": [
        {
          "internalType": "bool",
          "name": "",
          "type": "bool"
        }
      ],
      "stateMutability": "view",
      "type": "function",
      "constant": true
    },
    {
      "inputs": [
        {
          "internalType": "address",
          "name": "",
          "type": "address"
        }
      ],
      "name": "totalPaid",
      "outputs": [
        {
          "internalType": "uint256",
          "name": "",
          "type": "uint256"
        }
      ],
      "stateMutability": "view",
      "type": "function",
      "constant": true
    },
    {
      "inputs": [
        {
          "internalType": "uint256",
          "name": "planId",
          "type": "uint256"
        },
        {
          "components": [
            {
              "internalType": "uint16",
              "name": "copayBps",
              "type": "uint16"
            },
            {
              "internalType": "uint256",
              "name": "deductible",
              "type": "uint256"
            },
            {
              "internalType": "uint256",
              "name": "coverageLimit",
              "type": "uint256"
            }
          ],
          "internalType": "struct InsuranceRegistry.Plan",
          "name": "p",
          "type": "tuple"
        }
      ],
      "name": "setPlan",
      "outputs": [],
      "stateMutability": "nonpayable",
      "type": "function"
    },
    {
      "inputs": [
        {
          "internalType": "address",
          "name": "citizen",
          "type": "address"
        },
        {
          "internalType": "uint256",
          "name": "planId",
          "type": "uint256"
        }
      ],
      "name": "registerCitizen",
      "outputs": [],
      "stateMutability": "nonpayable",
      "type": "function"
    },
    {
      "inputs": [
        {
          "internalType": "address",
          "name": "citizen",
          "type": "address"
        },
        {
          "internalType": "uint256",
          "name": "amount",
          "type": "uint256"
        }
      ],
      "name": "addPaid",
      "outputs": [],
      "stateMutability": "nonpayable",
      "type": "function"
    },
    {
      "inputs": [
        {
          "internalType": "address",
          "name": "_rc",
          "type": "address"
        }
      ],
      "name": "setReimbursementContract",
      "outputs": [],
      "stateMutability": "nonpayable",
      "type": "function"
    },
    {
      "inputs": [
        {
          "internalType": "address",
          "name": "citizen",
          "type": "address"
        }
      ],
      "name": "terminateCitizen",
      "outputs": [],
      "stateMutability": "nonpayable",
      "type": "function"
    },
    {
      "inputs": [
        {
          "internalType": "address",
          "name": "citizen",
          "type": "address"
        }
      ],
      "name": "getPlanOf",
      "outputs": [
        {
          "internalType": "uint256",
          "name": "planId",
          "type": "uint256"
        },
        {
          "components": [
            {
              "internalType": "uint16",
              "name": "copayBps",
              "type": "uint16"
            },
            {
              "internalType": "uint256",
              "name": "deductible",
              "type": "uint256"
            },
            {
              "internalType": "uint256",
              "name": "coverageLimit",
              "type": "uint256"
            }
          ],
          "internalType": "struct InsuranceRegistry.Plan",
          "name": "p",
          "type": "tuple"
        }
      ],
      "stateMutability": "view",
      "type": "function",
      "constant": true
    }
  ],
  "bytecode": "0x60806040523480156200001157600080fd5b50620000276000801b336200005f60201b60201c565b620000597f0603f2636f0ca34ae3ea5a23bb826e2bd2ffd59fb1c01edc1ba10fba2899d1ba336200005f60201b60201c565b620001c2565b6200007182826200015060201b60201c565b6200014c57600160008084815260200190815260200160002060000160008373ffffffffffffffffffffffffffffffffffffffff1673ffffffffffffffffffffffffffffffffffffffff16815260200190815260200160002060006101000a81548160ff021916908315150217905550620000f1620001ba60201b60201c565b73ffffffffffffffffffffffffffffffffffffffff168173ffffffffffffffffffffffffffffffffffffffff16837f2f8788117e7eff1d82e926ec794901d17c78024a50270940304540a733656f0d60405160405180910390a45b5050565b600080600084815260200190815260200160002060000160008373ffffffffffffffffffffffffffffffffffffffff1673ffffffffffffffffffffffffffffffffffffffff16815260200190815260200160002060009054906101000a900460ff16905092915050565b600033905090565b611d1680620001d26000396000f3fe608060405234801561001057600080fd5b50600436106101215760003560e01c806364776276116100ad578063b162061611610071578063b16206161461032b578063b3bf36321461035d578063b536818a14610379578063d547741f14610397578063ef4a692c146103b357610121565b8063647762761461028957806391d14854146102a5578063a217fddf146102d5578063a9218ed7146102f3578063addfb60e1461030f57610121565b80632f2ff15d116100f45780632f2ff15d146101d257806336568abe146101ee578063382525a11461020a5780633dd6d5331461023b57806342d5350b1461026b57610121565b806301ad6fac1461012657806301ffc9a71461015657806311b14ca414610186578063248a9ca3146101a2575b600080fd5b610140600480360381019061013b91906111f2565b6103e3565b60405161014d9190611238565b60405180910390f35b610170600480360381019061016b91906112ab565b6103fb565b60405161017d91906112f3565b60405180910390f35b6101a0600480360381019061019b91906111f2565b610475565b005b6101bc60048036038101906101b79190611344565b61053e565b6040516101c99190611380565b60405180910390f35b6101ec60048036038101906101e7919061139b565b61055d565b005b6102086004803603810190610203919061139b565b61057e565b005b610224600480360381019061021f91906111f2565b610601565b604051610232929190611449565b60405180910390f35b610255600480360381019061025091906111f2565b610726565b6040516102629190611238565b60405180910390f35b61027361073e565b6040516102809190611481565b60405180910390f35b6102a3600480360381019061029e91906111f2565b610764565b005b6102bf60048036038101906102ba919061139b565b610842565b6040516102cc91906112f3565b60405180910390f35b6102dd6108ac565b6040516102ea9190611380565b60405180910390f35b61030d600480360381019061030891906114c8565b6108b3565b005b6103296004803603810190610324919061152c565b61099d565b005b6103456004803603810190610340919061156c565b610a26565b604051610354939291906115a8565b60405180910390f35b610377600480360381019061037291906114c8565b610a5e565b005b610381610bd0565b60405161038e9190611380565b60405180910390f35b6103b160048036038101906103ac919061139b565b610bf4565b005b6103cd60048036038101906103c891906111f2565b610c15565b6040516103da91906112f3565b60405180910390f35b60036020528060005260406000206000915090505481565b60007f7965db0b000000000000000000000000000000000000000000000000000000007bffffffffffffffffffffffffffffffffffffffffffffffffffffffff1916827bffffffffffffffffffffffffffffffffffffffffffffffffffffffff1916148061046e575061046d82610c35565b5b9050919050565b7f0603f2636f0ca34ae3ea5a23bb826e2bd2ffd59fb1c01edc1ba10fba2899d1ba61049f81610c9f565b6001600560008473ffffffffffffffffffffffffffffffffffffffff1673ffffffffffffffffffffffffffffffffffffffff16815260200190815260200160002060006101000a81548160ff0219169083151502179055508173ffffffffffffffffffffffffffffffffffffffff167f9632677bb5b38732dc914aaddd312bd0477151df37876ff71ced91bdcb56e07960405160405180910390a25050565b6000806000838152602001908152602001600020600101549050919050565b6105668261053e565b61056f81610c9f565b6105798383610cb3565b505050565b610586610d93565b73ffffffffffffffffffffffffffffffffffffffff168173ffffffffffffffffffffffffffffffffffffffff16146105f3576040517f08c379a00000000000000000000000000000000000000000000000000000000081526004016105ea90611662565b60405180910390fd5b6105fd8282610d9b565b5050565b600061060b61116a565b600560008473ffffffffffffffffffffffffffffffffffffffff1673ffffffffffffffffffffffffffffffffffffffff16815260200190815260200160002060009054906101000a900460ff161561068a57600091506040518060600160405280600061ffff1681526020016000815260200160008152509050610721565b600360008473ffffffffffffffffffffffffffffffffffffffff1673ffffffffffffffffffffffffffffffffffffffff168152602001908152602001600020549150600260008381526020019081526020016000206040518060600160405290816000820160009054906101000a900461ffff1661ffff1661ffff1681526020016001820154815260200160028201548152505090505b915091565b60046020528060005260406000206000915090505481565b600160009054906101000a900473ffffffffffffffffffffffffffffffffffffffff1681565b7f0603f2636f0ca34ae3ea5a23bb826e2bd2ffd59fb1c01edc1ba10fba2899d1ba61078e81610c9f565b600073ffffffffffffffffffffffffffffffffffffffff168273ffffffffffffffffffffffffffffffffffffffff16036107fd576040517f08c379a00000000000000000000000000000000000000000000000000000000081526004016107f4906116ce565b60405180910390fd5b81600160006101000a81548173ffffffffffffffffffffffffffffffffffffffff021916908373ffffffffffffffffffffffffffffffffffffffff1602179055505050565b600080600084815260200190815260200160002060000160008373ffffffffffffffffffffffffffffffffffffffff1673ffffffffffffffffffffffffffffffffffffffff16815260200190815260200160002060009054906101000a900460ff16905092915050565b6000801b81565b600160009054906101000a900473ffffffffffffffffffffffffffffffffffffffff1673ffffffffffffffffffffffffffffffffffffffff163373ffffffffffffffffffffffffffffffffffffffff1614610943576040517f08c379a000000000000000000000000000000000000000000000000000000000815260040161093a9061173a565b60405180910390fd5b80600460008473ffffffffffffffffffffffffffffffffffffffff1673ffffffffffffffffffffffffffffffffffffffff16815260200190815260200160002060008282546109929190611789565b925050819055505050565b7f0603f2636f0ca34ae3ea5a23bb826e2bd2ffd59fb1c01edc1ba10fba2899d1ba6109c781610c9f565b816002600085815260200190815260200160002081816109e79190611982565b9050507f4dcaaa174092e910e7ba2fdf855e12a8d0c4b034ffcb76181b145ec8d53b87ff83604051610a199190611238565b60405180910390a1505050565b60026020528060005260406000206000915090508060000160009054906101000a900461ffff16908060010154908060020154905083565b7f0603f2636f0ca34ae3ea5a23bb826e2bd2ffd59fb1c01edc1ba10fba2899d1ba610a8881610c9f565b6000600260008481526020019081526020016000206002015411610ae1576040517f08c379a0000000000000000000000000000000000000000000000000000000008152600401610ad8906119dc565b60405180910390fd5b81600360008573ffffffffffffffffffffffffffffffffffffffff1673ffffffffffffffffffffffffffffffffffffffff168152602001908152602001600020819055506000600560008573ffffffffffffffffffffffffffffffffffffffff1673ffffffffffffffffffffffffffffffffffffffff16815260200190815260200160002060006101000a81548160ff0219169083151502179055508273ffffffffffffffffffffffffffffffffffffffff167f9f4e1c382cdd9fb482444097babab40742f8a3624c0ab69305c3c396f26794b883604051610bc39190611238565b60405180910390a2505050565b7f0603f2636f0ca34ae3ea5a23bb826e2bd2ffd59fb1c01edc1ba10fba2899d1ba81565b610bfd8261053e565b610c0681610c9f565b610c108383610d9b565b505050565b60056020528060005260406000206000915054906101000a900460ff1681565b60007f01ffc9a7000000000000000000000000000000000000000000000000000000007bffffffffffffffffffffffffffffffffffffffffffffffffffffffff1916827bffffffffffffffffffffffffffffffffffffffffffffffffffffffff1916149050919050565b610cb081610cab610d93565b610e7c565b50565b610cbd8282610842565b610d8f57600160008084815260200190815260200160002060000160008373ffffffffffffffffffffffffffffffffffffffff1673ffffffffffffffffffffffffffffffffffffffff16815260200190815260200160002060006101000a81548160ff021916908315150217905550610d34610d93565b73ffffffffffffffffffffffffffffffffffffffff168173ffffffffffffffffffffffffffffffffffffffff16837f2f8788117e7eff1d82e926ec794901d17c78024a50270940304540a733656f0d60405160405180910390a45b5050565b600033905090565b610da58282610842565b15610e7857600080600084815260200190815260200160002060000160008373ffffffffffffffffffffffffffffffffffffffff1673ffffffffffffffffffffffffffffffffffffffff16815260200190815260200160002060006101000a81548160ff021916908315150217905550610e1d610d93565b73ffffffffffffffffffffffffffffffffffffffff168173ffffffffffffffffffffffffffffffffffffffff16837ff6391f5c32d9c69d2a47ea670b442974b53935d1edc7fd64eb21e047a839171b60405160405180910390a45b5050565b610e868282610842565b610efd57610e9381610f01565b610ea18360001c6020610f2e565b604051602001610eb2929190611b05565b6040516020818303038152906040526040517f08c379a0000000000000000000000000000000000000000000000000000000008152600401610ef49190611b89565b60405180910390fd5b5050565b6060610f278273ffffffffffffffffffffffffffffffffffffffff16601460ff16610f2e565b9050919050565b606060006002836002610f419190611bab565b610f4b9190611789565b67ffffffffffffffff811115610f6457610f63611bed565b5b6040519080825280601f01601f191660200182016040528015610f965781602001600182028036833780820191505090505b5090507f300000000000000000000000000000000000000000000000000000000000000081600081518110610fce57610fcd611c1c565b5b60200101907effffffffffffffffffffffffffffffffffffffffffffffffffffffffffffff1916908160001a9053507f78000000000000000000000000000000000000000000000000000000000000008160018151811061103257611031611c1c565b5b60200101907effffffffffffffffffffffffffffffffffffffffffffffffffffffffffffff1916908160001a905350600060018460026110729190611bab565b61107c9190611789565b90505b600181111561111c577f3031323334353637383961626364656600000000000000000000000000000000600f8616601081106110be576110bd611c1c565b5b1a60f81b8282815181106110d5576110d4611c1c565b5b60200101907effffffffffffffffffffffffffffffffffffffffffffffffffffffffffffff1916908160001a905350600485901c94508061111590611c4b565b905061107f565b5060008414611160576040517f08c379a000000000000000000000000000000000000000000000000000000000815260040161115790611cc0565b60405180910390fd5b8091505092915050565b6040518060600160405280600061ffff16815260200160008152602001600081525090565b600080fd5b600073ffffffffffffffffffffffffffffffffffffffff82169050919050565b60006111bf82611194565b9050919050565b6111cf816111b4565b81146111da57600080fd5b50565b6000813590506111ec816111c6565b92915050565b6000602082840312156112085761120761118f565b5b6000611216848285016111dd565b91505092915050565b6000819050919050565b6112328161121f565b82525050565b600060208201905061124d6000830184611229565b92915050565b60007fffffffff0000000000000000000000000000000000000000000000000000000082169050919050565b61128881611253565b811461129357600080fd5b50565b6000813590506112a58161127f565b92915050565b6000602082840312156112c1576112c061118f565b5b60006112cf84828501611296565b91505092915050565b60008115159050919050565b6112ed816112d8565b82525050565b600060208201905061130860008301846112e4565b92915050565b6000819050919050565b6113218161130e565b811461132c57600080fd5b50565b60008135905061133e81611318565b92915050565b60006020828403121561135a5761135961118f565b5b60006113688482850161132f565b91505092915050565b61137a8161130e565b82525050565b60006020820190506113956000830184611371565b92915050565b600080604083850312156113b2576113b161118f565b5b60006113c08582860161132f565b92505060206113d1858286016111dd565b9150509250929050565b600061ffff82169050919050565b6113f2816113db565b82525050565b6114018161121f565b82525050565b60608201600082015161141d60008501826113e9565b50602082015161143060208501826113f8565b50604082015161144360408501826113f8565b50505050565b600060808201905061145e6000830185611229565b61146b6020830184611407565b9392505050565b61147b816111b4565b82525050565b60006020820190506114966000830184611472565b92915050565b6114a58161121f565b81146114b057600080fd5b50565b6000813590506114c28161149c565b92915050565b600080604083850312156114df576114de61118f565b5b60006114ed858286016111dd565b92505060206114fe858286016114b3565b9150509250929050565b600080fd5b60006060828403121561152357611522611508565b5b81905092915050565b600080608083850312156115435761154261118f565b5b6000611551858286016114b3565b92505060206115628582860161150d565b9150509250929050565b6000602082840312156115825761158161118f565b5b6000611590848285016114b3565b91505092915050565b6115a2816113db565b82525050565b60006060820190506115bd6000830186611599565b6115ca6020830185611229565b6115d76040830184611229565b949350505050565b600082825260208201905092915050565b7f416363657373436f6e74726f6c3a2063616e206f6e6c792072656e6f756e636560008201527f20726f6c657320666f722073656c660000000000000000000000000000000000602082015250565b600061164c602f836115df565b9150611657826115f0565b604082019050919050565b6000602082019050818103600083015261167b8161163f565b9050919050565b7f496e76616c696420616464726573730000000000000000000000000000000000600082015250565b60006116b8600f836115df565b91506116c382611682565b602082019050919050565b600060208201905081810360008301526116e7816116ab565b9050919050565b7f4f6e6c79205265696d62757273656d656e74436f6e7472616374000000000000600082015250565b6000611724601a836115df565b915061172f826116ee565b602082019050919050565b6000602082019050818103600083015261175381611717565b9050919050565b7f4e487b7100000000000000000000000000000000000000000000000000000000600052601160045260246000fd5b60006117948261121f565b915061179f8361121f565b92508282019050808211156117b7576117b661175a565b5b92915050565b6117c6816113db565b81146117d157600080fd5b50565b600081356117e1816117bd565b80915050919050565b60008160001b9050919050565b600061ffff611805846117ea565b9350801983169250808416831791505092915050565b6000819050919050565b600061184061183b611836846113db565b61181b565b6113db565b9050919050565b6000819050919050565b61185a82611825565b61186d61186682611847565b83546117f7565b8255505050565b600081356118818161149c565b80915050919050565b60007fffffffffffffffffffffffffffffffffffffffffffffffffffffffffffffffff6118b6846117ea565b9350801983169250808416831791505092915050565b60006118e76118e26118dd8461121f565b61181b565b61121f565b9050919050565b6000819050919050565b611901826118cc565b61191461190d826118ee565b835461188a565b8255505050565b60008101600083018061192d816117d4565b90506119398184611851565b50505060018101602083018061194e81611874565b905061195a81846118f8565b50505060028101604083018061196f81611874565b905061197b81846118f8565b5050505050565b61198c828261191b565b5050565b7f496e76616c696420706c616e0000000000000000000000000000000000000000600082015250565b60006119c6600c836115df565b91506119d182611990565b602082019050919050565b600060208201905081810360008301526119f5816119b9565b9050919050565b600081905092915050565b7f416363657373436f6e74726f6c3a206163636f756e7420000000000000000000600082015250565b6000611a3d6017836119fc565b9150611a4882611a07565b601782019050919050565b600081519050919050565b60005b83811015611a7c578082015181840152602081019050611a61565b60008484015250505050565b6000611a9382611a53565b611a9d81856119fc565b9350611aad818560208601611a5e565b80840191505092915050565b7f206973206d697373696e6720726f6c6520000000000000000000000000000000600082015250565b6000611aef6011836119fc565b9150611afa82611ab9565b601182019050919050565b6000611b1082611a30565b9150611b1c8285611a88565b9150611b2782611ae2565b9150611b338284611a88565b91508190509392505050565b6000601f19601f8301169050919050565b6000611b5b82611a53565b611b6581856115df565b9350611b75818560208601611a5e565b611b7e81611b3f565b840191505092915050565b60006020820190508181036000830152611ba38184611b50565b905092915050565b6000611bb68261121f565b9150611bc18361121f565b9250828202611bcf8161121f565b91508282048414831517611be657611be561175a565b5b5092915050565b7f4e487b7100000000000000000000000000000000000000000000000000000000600052604160045260246000fd5b7f4e487b7100000000000000000000000000000000000000000000000000000000600052603260045260246000fd5b6000611c568261121f565b915060008203611c6957611c6861175a565b5b600182039050919050565b7f537472696e67733a20686578206c656e67746820696e73756666696369656e74600082015250565b6000611caa6020836115df565b9150611cb582611c74565b602082019050919050565b60006020820190508181036000830152611cd981611c9d565b905091905056fea26469706673582212203636d2ce85288f4ca58d0514fd1e71bbbe4590f6769097268deade66f41c425164736f6c63430008130033",
  "immutableReferences": {},
  "source": "pragma solidity ^0.8.19;\n\nimport \"@openzeppelin/contracts/access/AccessControl.sol\";\n\ncontract InsuranceRegistry is AccessControl {\n    bytes32 public constant GOV_ROLE = keccak256(\"GOV_ROLE\");\n    \n    //  addPaid \n    address public reimbursementContract;\n\n    struct Plan {\n        uint16 copayBps;\n        uint256 deductible;\n        uint256 coverageLimit;\n    }\n\n    mapping(uint256 => Plan) public plans;\n    mapping(address => uint256) public citizenPlan;\n    mapping(address => uint256) public totalPaid;\n    // true false \n    mapping(address => bool) public terminated;\n\n    event CitizenRegistered(address indexed citizen, uint256 planId);\n    event PlanUpdated(uint256 planId);\n    // \n    event CitizenTerminated(address indexed citizen);\n\n    constructor() {\n        _grantRole(DEFAULT_ADMIN_ROLE, msg.sender);\n        _grantRole(GOV_ROLE, msg.sender);\n    }\n\n    function setPlan(uint256 planId, Plan calldata p) external onlyRole(GOV_ROLE) {\n        plans[planId] = p;\n        emit PlanUpdated(planId);\n    }\n\n    function registerCitizen(address citizen, uint256 planId) external onlyRole(GOV_ROLE) {\n        require(plans[planId].coverageLimit > 0, \"Invalid plan\");\n        citizenPlan[citizen] = planId;\n        terminated[citizen] = false; // \n        emit CitizenRegistered(citizen, planId);\n    }\n\n    // \n    function addPaid(address citizen, uint256 amount) external {\n        require(msg.sender == reimbursementContract, \"Only ReimbursementContract\");\n        totalPaid[citizen] += amount;\n    }\n\n    // \n    function setReimbursementContract(address _rc) external onlyRole(GOV_ROLE) {\n        require(_rc != address(0), \"Invalid address\");\n        reimbursementContract = _rc;\n    }\n\n    // \n    function terminateCitizen(address citizen) external onlyRole(GOV_ROLE) {\n        terminated[citizen] = true;\n        emit CitizenTerminated(citizen);\n    }\n\n    function getPlanOf(address citizen) external view returns (uint256 planId, Plan memory p) {\n        // \n        if (terminated[citizen]) {\n            planId = 0;\n            p = Plan({copayBps: 0, deductible: 0, coverageLimit: 0});\n            return (planId, p);\n        }\n        planId = citizenPlan[citizen];\n        p = plans[planId];\n    }\n}\n",
  "sourcePath": "D:\\Blockchain A2\\BlockchainTeam2\\Contracts\\InsuranceRegistry.sol",
  "compiler": {
    "name": "solc",
    "version": "0.8.19+commit.7dd6d404.Emscripten.clang"
  },
  "schemaVersion": "3.4.16",
  "updatedAt": "2025-11-05T17:17:08.302Z",
  "networkType": "ethereum",
  "devdoc": {
    "events": {
      "RoleAdminChanged(bytes32,bytes32,bytes32)": {
        "details": "Emitted when `newAdminRole` is set as ``role``'s admin role, replacing `previousAdminRole` `DEFAULT_ADMIN_ROLE` is the starting admin for all roles, despite {RoleAdminChanged} not being emitted signaling this. _Available since v3.1._"
      },
      "RoleGranted(bytes32,address,address)": {
        "details": "Emitted when `account` is granted `role`. `sender` is the account that originated the contract call, an admin role bearer except when using {AccessControl-_setupRole}."
      },
      "RoleRevoked(bytes32,address,address)": {
        "details": "Emitted when `account` is revoked `role`. `sender` is the account that originated the contract call:   - if using `revokeRole`, it is the admin role bearer   - if using `renounceRole`, it is the role bearer (i.e. `account`)"
      }
    },
    "kind": "dev",
    "methods": {
      "getRoleAdmin(bytes32)": {
        "details": "Returns the admin role that controls `role`. See {grantRole} and {revokeRole}. To change a role's admin, use {_setRoleAdmin}."
      },
      "grantRole(bytes32,address)": {
        "details": "Grants `role` to `account`. If `account` had not been already granted `role`, emits a {RoleGranted} event. Requirements: - the caller must have ``role``'s admin role. May emit a {RoleGranted} event."
      },
      "hasRole(bytes32,address)": {
        "details": "Returns `true` if `account` has been granted `role`."
      },
      "renounceRole(bytes32,address)": {
        "details": "Revokes `role` from the calling account. Roles are often managed via {grantRole} and {revokeRole}: this function's purpose is to provide a mechanism for accounts to lose their privileges if they are compromised (such as when a trusted device is misplaced). If the calling account had been revoked `role`, emits a {RoleRevoked} event. Requirements: - the caller must be `account`. May emit a {RoleRevoked} event."
      },
      "revokeRole(bytes32,address)": {
        "details": "Revokes `role` from `account`. If `account` had been granted `role`, emits a {RoleRevoked} event. Requirements: - the caller must have ``role``'s admin role. May emit a {RoleRevoked} event."
      },
      "supportsInterface(bytes4)": {
        "details": "See {IERC165-supportsInterface}."
      }
    },
    "version": 1
  },
  "userdoc": {
    "kind": "user",
    "methods": {},
    "version": 1
  }
}