{
  "contractName": "ReimbursementContract",
  "abi": [
    {
      "inputs": [
        {
          "internalType": "address",
          "name": "_registry",
          "type": "address"
        },
        {
          "internalType": "address",
          "name": "_billContract",
          "type": "address"
        },
        {
          "internalType": "address",
          "name": "_token",
          "type": "address"
        }
      ],
      "stateMutability": "nonpayable",
      "type": "constructor"
    },
    {
      "anonymous": false,
      "inputs": [
        {
          "indexed": false,
          "internalType": "uint256",
          "name": "billId",
          "type": "uint256"
        },
        {
          "indexed": false,
          "internalType": "address",
          "name": "citizen",
          "type": "address"
        },
        {
          "indexed": false,
          "internalType": "uint256",
          "name": "payout",
          "type": "uint256"
        }
      ],
      "name": "Reimbursed",
      "type": "event"
    },
    {
      "anonymous": false,
      "inputs": [
        {
          "indexed": false,
          "internalType": "uint256",
          "name": "billId",
          "type": "uint256"
        },
        {
          "indexed": false,
          "internalType": "address",
          "name": "citizen",
          "type": "address"
        },
        {
          "indexed": false,
          "internalType": "string",
          "name": "reason",
          "type": "string"
        }
      ],
      "name": "Rejected",
      "type": "event"
    },
    {
      "anonymous": false,
      "inputs": [
        {
          "indexed": true,
          "internalType": "bytes32",
          "name": "role",
          "type": "bytes32"
        },
        {
          "indexed": true,
          "internalType": "bytes32",
          "name": "previousAdminRole",
          "type": "bytes32"
        },
        {
          "indexed": true,
          "internalType": "bytes32",
          "name": "newAdminRole",
          "type": "bytes32"
        }
      ],
      "name": "RoleAdminChanged",
      "type": "event"
    },
    {
      "anonymous": false,
      "inputs": [
        {
          "indexed": true,
          "internalType": "bytes32",
          "name": "role",
          "type": "bytes32"
        },
        {
          "indexed": true,
          "internalType": "address",
          "name": "account",
          "type": "address"
        },
        {
          "indexed": true,
          "internalType": "address",
          "name": "sender",
          "type": "address"
        }
      ],
      "name": "RoleGranted",
      "type": "event"
    },
    {
      "anonymous": false,
      "inputs": [
        {
          "indexed": true,
          "internalType": "bytes32",
          "name": "role",
          "type": "bytes32"
        },
        {
          "indexed": true,
          "internalType": "address",
          "name": "account",
          "type": "address"
        },
        {
          "indexed": true,
          "internalType": "address",
          "name": "sender",
          "type": "address"
        }
      ],
      "name": "RoleRevoked",
      "type": "event"
    },
    {
      "inputs": [],
      "name": "DEFAULT_ADMIN_ROLE",
      "outputs": [
        {
          "internalType": "bytes32",
          "name": "",
          "type": "bytes32"
        }
      ],
      "stateMutability": "view",
      "type": "function",
      "constant": true
    },
    {
      "inputs": [],
      "name": "billContract",
      "outputs": [
        {
          "internalType": "contract HospitalBillContract",
          "name": "",
          "type": "address"
        }
      ],
      "stateMutability": "view",
      "type": "function",
      "constant": true
    },
    {
      "inputs": [
        {
          "internalType": "bytes32",
          "name": "role",
          "type": "bytes32"
        }
      ],
      "name": "getRoleAdmin",
      "outputs": [
        {
          "internalType": "bytes32",
          "name": "",
          "type": "bytes32"
        }
      ],
      "stateMutability": "view",
      "type": "function",
      "constant": true
    },
    {
      "inputs": [
        {
          "internalType": "bytes32",
          "name": "role",
          "type": "bytes32"
        },
        {
          "internalType": "address",
          "name": "account",
          "type": "address"
        }
      ],
      "name": "grantRole",
      "outputs": [],
      "stateMutability": "nonpayable",
      "type": "function"
    },
    {
      "inputs": [
        {
          "internalType": "bytes32",
          "name": "role",
          "type": "bytes32"
        },
        {
          "internalType": "address",
          "name": "account",
          "type": "address"
        }
      ],
      "name": "hasRole",
      "outputs": [
        {
          "internalType": "bool",
          "name": "",
          "type": "bool"
        }
      ],
      "stateMutability": "view",
      "type": "function",
      "constant": true
    },
    {
      "inputs": [],
      "name": "registry",
      "outputs": [
        {
          "internalType": "contract InsuranceRegistry",
          "name": "",
          "type": "address"
        }
      ],
      "stateMutability": "view",
      "type": "function",
      "constant": true
    },
    {
      "inputs": [
        {
          "internalType": "bytes32",
          "name": "role",
          "type": "bytes32"
        },
        {
          "internalType": "address",
          "name": "account",
          "type": "address"
        }
      ],
      "name": "renounceRole",
      "outputs": [],
      "stateMutability": "nonpayable",
      "type": "function"
    },
    {
      "inputs": [
        {
          "internalType": "bytes32",
          "name": "role",
          "type": "bytes32"
        },
        {
          "internalType": "address",
          "name": "account",
          "type": "address"
        }
      ],
      "name": "revokeRole",
      "outputs": [],
      "stateMutability": "nonpayable",
      "type": "function"
    },
    {
      "inputs": [
        {
          "internalType": "bytes4",
          "name": "interfaceId",
          "type": "bytes4"
        }
      ],
      "name": "supportsInterface",
      "outputs": [
        {
          "internalType": "bool",
          "name": "",
          "type": "bool"
        }
      ],
      "stateMutability": "view",
      "type": "function",
      "constant": true
    },
    {
      "inputs": [],
      "name": "token",
      "outputs": [
        {
          "internalType": "contract GovStable",
          "name": "",
          "type": "address"
        }
      ],
      "stateMutability": "view",
      "type": "function",
      "constant": true
    },
    {
      "inputs": [
        {
          "internalType": "uint256",
          "name": "billId",
          "type": "uint256"
        }
      ],
      "name": "processReimbursement",
      "outputs": [],
      "stateMutability": "nonpayable",
      "type": "function"
    },
    {
      "inputs": [
        {
          "internalType": "uint256",
          "name": "billId",
          "type": "uint256"
        },
        {
          "internalType": "string",
          "name": "reason",
          "type": "string"
        }
      ],
      "name": "rejectReimbursement",
      "outputs": [],
      "stateMutability": "nonpayable",
      "type": "function"
    }
  ],
  "bytecode": "0x60806040523480156200001157600080fd5b5060405162002729380380620027298339818101604052810190620000379190620002ec565b60018081905550620000536000801b336200011f60201b60201c565b82600260006101000a81548173ffffffffffffffffffffffffffffffffffffffff021916908373ffffffffffffffffffffffffffffffffffffffff16021790555081600360006101000a81548173ffffffffffffffffffffffffffffffffffffffff021916908373ffffffffffffffffffffffffffffffffffffffff16021790555080600460006101000a81548173ffffffffffffffffffffffffffffffffffffffff021916908373ffffffffffffffffffffffffffffffffffffffff16021790555050505062000348565b6200013182826200021060201b60201c565b6200020c57600160008084815260200190815260200160002060000160008373ffffffffffffffffffffffffffffffffffffffff1673ffffffffffffffffffffffffffffffffffffffff16815260200190815260200160002060006101000a81548160ff021916908315150217905550620001b16200027a60201b60201c565b73ffffffffffffffffffffffffffffffffffffffff168173ffffffffffffffffffffffffffffffffffffffff16837f2f8788117e7eff1d82e926ec794901d17c78024a50270940304540a733656f0d60405160405180910390a45b5050565b600080600084815260200190815260200160002060000160008373ffffffffffffffffffffffffffffffffffffffff1673ffffffffffffffffffffffffffffffffffffffff16815260200190815260200160002060009054906101000a900460ff16905092915050565b600033905090565b600080fd5b600073ffffffffffffffffffffffffffffffffffffffff82169050919050565b6000620002b48262000287565b9050919050565b620002c681620002a7565b8114620002d257600080fd5b50565b600081519050620002e681620002bb565b92915050565b60008060006060848603121562000308576200030762000282565b5b60006200031886828701620002d5565b93505060206200032b86828701620002d5565b92505060406200033e86828701620002d5565b9150509250925092565b6123d180620003586000396000f3fe608060405234801561001057600080fd5b50600436106100b45760003560e01c806391d148541161007157806391d148541461018b5780639d3243d7146101bb578063a217fddf146101d9578063c690a532146101f7578063d547741f14610213578063fc0c546a1461022f576100b4565b806301ffc9a7146100b957806311925e76146100e9578063248a9ca3146101055780632f2ff15d1461013557806336568abe146101515780637b1039991461016d575b600080fd5b6100d360048036038101906100ce919061142a565b61024d565b6040516100e09190611472565b60405180910390f35b61010360048036038101906100fe91906114c3565b6102c7565b005b61011f600480360381019061011a9190611526565b610a67565b60405161012c9190611562565b60405180910390f35b61014f600480360381019061014a91906115db565b610a86565b005b61016b600480360381019061016691906115db565b610aa7565b005b610175610b2a565b604051610182919061167a565b60405180910390f35b6101a560048036038101906101a091906115db565b610b50565b6040516101b29190611472565b60405180910390f35b6101c3610bba565b6040516101d091906116b6565b60405180910390f35b6101e1610be0565b6040516101ee9190611562565b60405180910390f35b610211600480360381019061020c9190611817565b610be7565b005b61022d600480360381019061022891906115db565b610dea565b005b610237610e0b565b6040516102449190611894565b60405180910390f35b60007f7965db0b000000000000000000000000000000000000000000000000000000007bffffffffffffffffffffffffffffffffffffffffffffffffffffffff1916827bffffffffffffffffffffffffffffffffffffffffffffffffffffffff191614806102c057506102bf82610e31565b5b9050919050565b6102cf610e9b565b6000801b6102dc81610eea565b6000600360009054906101000a900473ffffffffffffffffffffffffffffffffffffffff1673ffffffffffffffffffffffffffffffffffffffff1663b1cd06e6846040518263ffffffff1660e01b815260040161033991906118be565b60a060405180830381865afa158015610356573d6000803e3d6000fd5b505050506040513d601f19601f8201168201806040525081019061037a91906119ce565b9050600060028111156103905761038f6119fb565b5b816080015160028111156103a7576103a66119fb565b5b146103ef577f57bef5442a9200b3dece1864ca545774940fc88e515bd251ddab26f14567c8288382600001516040516103e1929190611abc565b60405180910390a150610a5b565b600080600260009054906101000a900473ffffffffffffffffffffffffffffffffffffffff1673ffffffffffffffffffffffffffffffffffffffff1663382525a184600001516040518263ffffffff1660e01b81526004016104519190611af8565b608060405180830381865afa15801561046e573d6000803e3d6000fd5b505050506040513d601f19601f820116820180604052508101906104929190611bb1565b91509150600081604001510361057457600360009054906101000a900473ffffffffffffffffffffffffffffffffffffffff1673ffffffffffffffffffffffffffffffffffffffff166317bf4879866040518263ffffffff1660e01b81526004016104fd91906118be565b600060405180830381600087803b15801561051757600080fd5b505af115801561052b573d6000803e3d6000fd5b505050507f57bef5442a9200b3dece1864ca545774940fc88e515bd251ddab26f14567c828858460000151604051610564929190611c3d565b60405180910390a1505050610a5b565b6000600260009054906101000a900473ffffffffffffffffffffffffffffffffffffffff1673ffffffffffffffffffffffffffffffffffffffff16633dd6d53385600001516040518263ffffffff1660e01b81526004016105d59190611af8565b602060405180830381865afa1580156105f2573d6000803e3d6000fd5b505050506040513d601f19601f820116820180604052508101906106169190611c79565b9050816040015181106106f657600360009054906101000a900473ffffffffffffffffffffffffffffffffffffffff1673ffffffffffffffffffffffffffffffffffffffff166317bf4879876040518263ffffffff1660e01b815260040161067e91906118be565b600060405180830381600087803b15801561069857600080fd5b505af11580156106ac573d6000803e3d6000fd5b505050507f57bef5442a9200b3dece1864ca545774940fc88e515bd251ddab26f14567c8288685600001516040516106e5929190611cf2565b60405180910390a150505050610a5b565b6000826020015190506000836000015161ffff1690506000828760400151111561072d5782876040015161072a9190611d5d565b90505b6000612710836127106107409190611d5d565b8361074b9190611d91565b6107559190611e02565b9050856040015185826107689190611e33565b11156107815784866040015161077e9190611d5d565b90505b6000810361086057600360009054906101000a900473ffffffffffffffffffffffffffffffffffffffff1673ffffffffffffffffffffffffffffffffffffffff166317bf48798b6040518263ffffffff1660e01b81526004016107e491906118be565b600060405180830381600087803b1580156107fe57600080fd5b505af1158015610812573d6000803e3d6000fd5b505050507f57bef5442a9200b3dece1864ca545774940fc88e515bd251ddab26f14567c8288a896000015160405161084b929190611eb3565b60405180910390a15050505050505050610a5b565b600460009054906101000a900473ffffffffffffffffffffffffffffffffffffffff1673ffffffffffffffffffffffffffffffffffffffff166340c10f198960000151836040518363ffffffff1660e01b81526004016108c1929190611eef565b600060405180830381600087803b1580156108db57600080fd5b505af11580156108ef573d6000803e3d6000fd5b50505050600260009054906101000a900473ffffffffffffffffffffffffffffffffffffffff1673ffffffffffffffffffffffffffffffffffffffff1663a9218ed78960000151836040518363ffffffff1660e01b8152600401610954929190611eef565b600060405180830381600087803b15801561096e57600080fd5b505af1158015610982573d6000803e3d6000fd5b50505050600360009054906101000a900473ffffffffffffffffffffffffffffffffffffffff1673ffffffffffffffffffffffffffffffffffffffff16631841f5588b6040518263ffffffff1660e01b81526004016109e191906118be565b600060405180830381600087803b1580156109fb57600080fd5b505af1158015610a0f573d6000803e3d6000fd5b505050507fb9018e3bb1e92e418eee4dffa94ae89bcd21fa2514ec13417a17ea8344c099cf8a896000015183604051610a4a93929190611f18565b60405180910390a150505050505050505b50610a64610efe565b50565b6000806000838152602001908152602001600020600101549050919050565b610a8f82610a67565b610a9881610eea565b610aa28383610f07565b505050565b610aaf610fe7565b73ffffffffffffffffffffffffffffffffffffffff168173ffffffffffffffffffffffffffffffffffffffff1614610b1c576040517f08c379a0000000000000000000000000000000000000000000000000000000008152600401610b1390611fc1565b60405180910390fd5b610b268282610fef565b5050565b600260009054906101000a900473ffffffffffffffffffffffffffffffffffffffff1681565b600080600084815260200190815260200160002060000160008373ffffffffffffffffffffffffffffffffffffffff1673ffffffffffffffffffffffffffffffffffffffff16815260200190815260200160002060009054906101000a900460ff16905092915050565b600360009054906101000a900473ffffffffffffffffffffffffffffffffffffffff1681565b6000801b81565b610bef610e9b565b6000801b610bfc81610eea565b6000600360009054906101000a900473ffffffffffffffffffffffffffffffffffffffff1673ffffffffffffffffffffffffffffffffffffffff1663b1cd06e6856040518263ffffffff1660e01b8152600401610c5991906118be565b60a060405180830381865afa158015610c76573d6000803e3d6000fd5b505050506040513d601f19601f82011682018060405250810190610c9a91906119ce565b905060006002811115610cb057610caf6119fb565b5b81608001516002811115610cc757610cc66119fb565b5b14610d0f577f57bef5442a9200b3dece1864ca545774940fc88e515bd251ddab26f14567c828848260000151604051610d01929190612053565b60405180910390a150610ddd565b600360009054906101000a900473ffffffffffffffffffffffffffffffffffffffff1673ffffffffffffffffffffffffffffffffffffffff166317bf4879856040518263ffffffff1660e01b8152600401610d6a91906118be565b600060405180830381600087803b158015610d8457600080fd5b505af1158015610d98573d6000803e3d6000fd5b505050507f57bef5442a9200b3dece1864ca545774940fc88e515bd251ddab26f14567c82884826000015185604051610dd3939291906120fd565b60405180910390a1505b50610de6610efe565b5050565b610df382610a67565b610dfc81610eea565b610e068383610fef565b505050565b600460009054906101000a900473ffffffffffffffffffffffffffffffffffffffff1681565b60007f01ffc9a7000000000000000000000000000000000000000000000000000000007bffffffffffffffffffffffffffffffffffffffffffffffffffffffff1916827bffffffffffffffffffffffffffffffffffffffffffffffffffffffff1916149050919050565b600260015403610ee0576040517f08c379a0000000000000000000000000000000000000000000000000000000008152600401610ed790612187565b60405180910390fd5b6002600181905550565b610efb81610ef6610fe7565b6110d0565b50565b60018081905550565b610f118282610b50565b610fe357600160008084815260200190815260200160002060000160008373ffffffffffffffffffffffffffffffffffffffff1673ffffffffffffffffffffffffffffffffffffffff16815260200190815260200160002060006101000a81548160ff021916908315150217905550610f88610fe7565b73ffffffffffffffffffffffffffffffffffffffff168173ffffffffffffffffffffffffffffffffffffffff16837f2f8788117e7eff1d82e926ec794901d17c78024a50270940304540a733656f0d60405160405180910390a45b5050565b600033905090565b610ff98282610b50565b156110cc57600080600084815260200190815260200160002060000160008373ffffffffffffffffffffffffffffffffffffffff1673ffffffffffffffffffffffffffffffffffffffff16815260200190815260200160002060006101000a81548160ff021916908315150217905550611071610fe7565b73ffffffffffffffffffffffffffffffffffffffff168173ffffffffffffffffffffffffffffffffffffffff16837ff6391f5c32d9c69d2a47ea670b442974b53935d1edc7fd64eb21e047a839171b60405160405180910390a45b5050565b6110da8282610b50565b611151576110e781611155565b6110f58360001c6020611182565b60405160200161110692919061227b565b6040516020818303038152906040526040517f08c379a000000000000000000000000000000000000000000000000000000000815260040161114891906122b5565b60405180910390fd5b5050565b606061117b8273ffffffffffffffffffffffffffffffffffffffff16601460ff16611182565b9050919050565b6060600060028360026111959190611d91565b61119f9190611e33565b67ffffffffffffffff8111156111b8576111b76116ec565b5b6040519080825280601f01601f1916602001820160405280156111ea5781602001600182028036833780820191505090505b5090507f300000000000000000000000000000000000000000000000000000000000000081600081518110611222576112216122d7565b5b60200101907effffffffffffffffffffffffffffffffffffffffffffffffffffffffffffff1916908160001a9053507f780000000000000000000000000000000000000000000000000000000000000081600181518110611286576112856122d7565b5b60200101907effffffffffffffffffffffffffffffffffffffffffffffffffffffffffffff1916908160001a905350600060018460026112c69190611d91565b6112d09190611e33565b90505b6001811115611370577f3031323334353637383961626364656600000000000000000000000000000000600f861660108110611312576113116122d7565b5b1a60f81b828281518110611329576113286122d7565b5b60200101907effffffffffffffffffffffffffffffffffffffffffffffffffffffffffffff1916908160001a905350600485901c94508061136990612306565b90506112d3565b50600084146113b4576040517f08c379a00000000000000000000000000000000000000000000000000000000081526004016113ab9061237b565b60405180910390fd5b8091505092915050565b6000604051905090565b600080fd5b600080fd5b60007fffffffff0000000000000000000000000000000000000000000000000000000082169050919050565b611407816113d2565b811461141257600080fd5b50565b600081359050611424816113fe565b92915050565b6000602082840312156114405761143f6113c8565b5b600061144e84828501611415565b91505092915050565b60008115159050919050565b61146c81611457565b82525050565b60006020820190506114876000830184611463565b92915050565b6000819050919050565b6114a08161148d565b81146114ab57600080fd5b50565b6000813590506114bd81611497565b92915050565b6000602082840312156114d9576114d86113c8565b5b60006114e7848285016114ae565b91505092915050565b6000819050919050565b611503816114f0565b811461150e57600080fd5b50565b600081359050611520816114fa565b92915050565b60006020828403121561153c5761153b6113c8565b5b600061154a84828501611511565b91505092915050565b61155c816114f0565b82525050565b60006020820190506115776000830184611553565b92915050565b600073ffffffffffffffffffffffffffffffffffffffff82169050919050565b60006115a88261157d565b9050919050565b6115b88161159d565b81146115c357600080fd5b50565b6000813590506115d5816115af565b92915050565b600080604083850312156115f2576115f16113c8565b5b600061160085828601611511565b9250506020611611858286016115c6565b9150509250929050565b6000819050919050565b600061164061163b6116368461157d565b61161b565b61157d565b9050919050565b600061165282611625565b9050919050565b600061166482611647565b9050919050565b61167481611659565b82525050565b600060208201905061168f600083018461166b565b92915050565b60006116a082611647565b9050919050565b6116b081611695565b82525050565b60006020820190506116cb60008301846116a7565b92915050565b600080fd5b600080fd5b6000601f19601f8301169050919050565b7f4e487b7100000000000000000000000000000000000000000000000000000000600052604160045260246000fd5b611724826116db565b810181811067ffffffffffffffff82111715611743576117426116ec565b5b80604052505050565b60006117566113be565b9050611762828261171b565b919050565b600067ffffffffffffffff821115611782576117816116ec565b5b61178b826116db565b9050602081019050919050565b82818337600083830152505050565b60006117ba6117b584611767565b61174c565b9050828152602081018484840111156117d6576117d56116d6565b5b6117e1848285611798565b509392505050565b600082601f8301126117fe576117fd6116d1565b5b813561180e8482602086016117a7565b91505092915050565b6000806040838503121561182e5761182d6113c8565b5b600061183c858286016114ae565b925050602083013567ffffffffffffffff81111561185d5761185c6113cd565b5b611869858286016117e9565b9150509250929050565b600061187e82611647565b9050919050565b61188e81611873565b82525050565b60006020820190506118a96000830184611885565b92915050565b6118b88161148d565b82525050565b60006020820190506118d360008301846118af565b92915050565b600080fd5b6000815190506118ed816115af565b92915050565b60008151905061190281611497565b92915050565b600081519050611917816114fa565b92915050565b6003811061192a57600080fd5b50565b60008151905061193c8161191d565b92915050565b600060a08284031215611958576119576118d9565b5b61196260a061174c565b90506000611972848285016118de565b6000830152506020611986848285016118f3565b602083015250604061199a848285016118f3565b60408301525060606119ae84828501611908565b60608301525060806119c28482850161192d565b60808301525092915050565b600060a082840312156119e4576119e36113c8565b5b60006119f284828501611942565b91505092915050565b7f4e487b7100000000000000000000000000000000000000000000000000000000600052602160045260246000fd5b611a338161159d565b82525050565b600082825260208201905092915050565b7f496e76616c696420737461747573202d2062696c6c20616c726561647920707260008201527f6f63657373656400000000000000000000000000000000000000000000000000602082015250565b6000611aa6602783611a39565b9150611ab182611a4a565b604082019050919050565b6000606082019050611ad160008301856118af565b611ade6020830184611a2a565b8181036040830152611aef81611a99565b90509392505050565b6000602082019050611b0d6000830184611a2a565b92915050565b600061ffff82169050919050565b611b2a81611b13565b8114611b3557600080fd5b50565b600081519050611b4781611b21565b92915050565b600060608284031215611b6357611b626118d9565b5b611b6d606061174c565b90506000611b7d84828501611b38565b6000830152506020611b91848285016118f3565b6020830152506040611ba5848285016118f3565b60408301525092915050565b60008060808385031215611bc857611bc76113c8565b5b6000611bd6858286016118f3565b9250506020611be785828601611b4d565b9150509250929050565b7f436974697a656e206e6f74207265676973746572656400000000000000000000600082015250565b6000611c27601683611a39565b9150611c3282611bf1565b602082019050919050565b6000606082019050611c5260008301856118af565b611c5f6020830184611a2a565b8181036040830152611c7081611c1a565b90509392505050565b600060208284031215611c8f57611c8e6113c8565b5b6000611c9d848285016118f3565b91505092915050565b7f436f766572616765206578686175737465640000000000000000000000000000600082015250565b6000611cdc601283611a39565b9150611ce782611ca6565b602082019050919050565b6000606082019050611d0760008301856118af565b611d146020830184611a2a565b8181036040830152611d2581611ccf565b90509392505050565b7f4e487b7100000000000000000000000000000000000000000000000000000000600052601160045260246000fd5b6000611d688261148d565b9150611d738361148d565b9250828203905081811115611d8b57611d8a611d2e565b5b92915050565b6000611d9c8261148d565b9150611da78361148d565b9250828202611db58161148d565b91508282048414831517611dcc57611dcb611d2e565b5b5092915050565b7f4e487b7100000000000000000000000000000000000000000000000000000000600052601260045260246000fd5b6000611e0d8261148d565b9150611e188361148d565b925082611e2857611e27611dd3565b5b828204905092915050565b6000611e3e8261148d565b9150611e498361148d565b9250828201905080821115611e6157611e60611d2e565b5b92915050565b7f5061796f7574203d203000000000000000000000000000000000000000000000600082015250565b6000611e9d600a83611a39565b9150611ea882611e67565b602082019050919050565b6000606082019050611ec860008301856118af565b611ed56020830184611a2a565b8181036040830152611ee681611e90565b90509392505050565b6000604082019050611f046000830185611a2a565b611f1160208301846118af565b9392505050565b6000606082019050611f2d60008301866118af565b611f3a6020830185611a2a565b611f4760408301846118af565b949350505050565b7f416363657373436f6e74726f6c3a2063616e206f6e6c792072656e6f756e636560008201527f20726f6c657320666f722073656c660000000000000000000000000000000000602082015250565b6000611fab602f83611a39565b9150611fb682611f4f565b604082019050919050565b60006020820190508181036000830152611fda81611f9e565b9050919050565b7f496e76616c696420737461747573202d2062696c6c206e6f7420696e2073756260008201527f6d69747465642073746174650000000000000000000000000000000000000000602082015250565b600061203d602c83611a39565b915061204882611fe1565b604082019050919050565b600060608201905061206860008301856118af565b6120756020830184611a2a565b818103604083015261208681612030565b90509392505050565b600081519050919050565b60005b838110156120b857808201518184015260208101905061209d565b60008484015250505050565b60006120cf8261208f565b6120d98185611a39565b93506120e981856020860161209a565b6120f2816116db565b840191505092915050565b600060608201905061211260008301866118af565b61211f6020830185611a2a565b818103604083015261213181846120c4565b9050949350505050565b7f5265656e7472616e637947756172643a207265656e7472616e742063616c6c00600082015250565b6000612171601f83611a39565b915061217c8261213b565b602082019050919050565b600060208201905081810360008301526121a081612164565b9050919050565b600081905092915050565b7f416363657373436f6e74726f6c3a206163636f756e7420000000000000000000600082015250565b60006121e86017836121a7565b91506121f3826121b2565b601782019050919050565b60006122098261208f565b61221381856121a7565b935061222381856020860161209a565b80840191505092915050565b7f206973206d697373696e6720726f6c6520000000000000000000000000000000600082015250565b60006122656011836121a7565b91506122708261222f565b601182019050919050565b6000612286826121db565b915061229282856121fe565b915061229d82612258565b91506122a982846121fe565b91508190509392505050565b600060208201905081810360008301526122cf81846120c4565b905092915050565b7f4e487b7100000000000000000000000000000000000000000000000000000000600052603260045260246000fd5b60006123118261148d565b91506000820361232457612323611d2e565b5b600182039050919050565b7f537472696e67733a20686578206c656e67746820696e73756666696369656e74600082015250565b6000612365602083611a39565b91506123708261232f565b602082019050919050565b6000602082019050818103600083015261239481612358565b905091905056fea2646970667358221220118e5e1e45919e684a4e5f8a4109154a448f12b48189ba33172e8e95c6efec4a64736f6c63430008130033",
  "immutableReferences": {},
  "source": "pragma solidity ^0.8.19;\r\n\r\nimport \"@openzeppelin/contracts/security/ReentrancyGuard.sol\";\r\nimport \"@openzeppelin/contracts/access/AccessControl.sol\";\r\nimport \"./GovStable.sol\";\r\nimport \"./InsuranceRegistry.sol\";\r\nimport \"./HospitalBillContract.sol\";\r\n\r\ncontract ReimbursementContract is AccessControl, ReentrancyGuard {\r\n    InsuranceRegistry public registry;\r\n    HospitalBillContract public billContract;\r\n    GovStable public token;\r\n\r\n    event Reimbursed(uint256 billId, address citizen, uint256 payout);\r\n    event Rejected(uint256 billId, address citizen, string reason);\r\n\r\n    constructor(address _registry, address _billContract, address _token) {\r\n        _grantRole(DEFAULT_ADMIN_ROLE, msg.sender);\r\n        registry = InsuranceRegistry(_registry);\r\n        billContract = HospitalBillContract(_billContract);\r\n        token = GovStable(_token);\r\n    }\r\n\r\n    function processReimbursement(uint256 billId) external nonReentrant onlyRole(DEFAULT_ADMIN_ROLE) {\r\n        HospitalBillContract.Bill memory bill = billContract.getBill(billId);\r\n        if (bill.status != HospitalBillContract.BillStatus.Submitted) {\r\n            // \r\n            emit Rejected(billId, bill.citizen, \"Invalid status - bill already processed\");\r\n            return;\r\n        }\r\n\r\n        (uint256 planId, InsuranceRegistry.Plan memory plan) = registry.getPlanOf(bill.citizen);\r\n        if (plan.coverageLimit == 0) {\r\n            billContract.markRejected(billId);\r\n            emit Rejected(billId, bill.citizen, \"Citizen not registered\");\r\n            return;\r\n        }\r\n\r\n        uint256 paidSoFar = registry.totalPaid(bill.citizen);\r\n        if (paidSoFar >= plan.coverageLimit) {\r\n            billContract.markRejected(billId);\r\n            emit Rejected(billId, bill.citizen, \"Coverage exhausted\");\r\n            return;\r\n        }\r\n\r\n        uint256 deductible = plan.deductible;\r\n        uint256 copayPct = plan.copayBps; // e.g., 100 = 1%\r\n\r\n        uint256 eligible = 0;\r\n        if (bill.amount > deductible) {\r\n            eligible = bill.amount - deductible;\r\n        }\r\n\r\n        uint256 payout = (eligible * (10000 - copayPct)) / 10000;\r\n        if (payout + paidSoFar > plan.coverageLimit) {\r\n            payout = plan.coverageLimit - paidSoFar;\r\n        }\r\n\r\n        if (payout == 0) {\r\n            billContract.markRejected(billId);\r\n            emit Rejected(billId, bill.citizen, \"Payout = 0\");\r\n            return;\r\n        }\r\n\r\n        token.mint(bill.citizen, payout);\r\n        registry.addPaid(bill.citizen, payout);\r\n        billContract.markReimbursed(billId);\r\n\r\n        emit Reimbursed(billId, bill.citizen, payout);\r\n    }\r\n\r\n    function rejectReimbursement(uint256 billId, string memory reason) external nonReentrant onlyRole(DEFAULT_ADMIN_ROLE) {\r\n        HospitalBillContract.Bill memory bill = billContract.getBill(billId);\r\n        if (bill.status != HospitalBillContract.BillStatus.Submitted) {\r\n            emit Rejected(billId, bill.citizen, \"Invalid status - bill not in submitted state\");\r\n            return;\r\n        }\r\n\r\n        billContract.markRejected(billId);\r\n        emit Rejected(billId, bill.citizen, reason);\r\n    }\r\n}\r\n",
  "sourcePath": "D:\\Blockchain A2\\BlockchainTeam2\\Contracts\\ReimbursementContract.sol",
  "compiler": {
    "name": "solc",
    "version": "0.8.19+commit.7dd6d404.Emscripten.clang"
  },
  "schemaVersion": "3.4.16",
  "updatedAt": "2025-11-05T17:17:08.318Z",
  "networkType": "ethereum",
  "devdoc": {
    "events": {
      "RoleAdminChanged(bytes32,bytes32,bytes32)": {
        "details": "Emitted when `newAdminRole` is set as ``role``'s admin role, replacing `previousAdminRole` `DEFAULT_ADMIN_ROLE` is the starting admin for all roles, despite {RoleAdminChanged} not being emitted signaling this. _Available since v3.1._"
      },
      "RoleGranted(bytes32,address,address)": {
        "details": "Emitted when `account` is granted `role`. `sender` is the account that originated the contract call, an admin role bearer except when using {AccessControl-_setupRole}."
      },
      "RoleRevoked(bytes32,address,address)": {
        "details": "Emitted when `account` is revoked `role`. `sender` is the account that originated the contract call:   - if using `revokeRole`, it is the admin role bearer   - if using `renounceRole`, it is the role bearer (i.e. `account`)"
      }
    },
    "kind": "dev",
    "methods": {
      "getRoleAdmin(bytes32)": {
        "details": "Returns the admin role that controls `role`. See {grantRole} and {revokeRole}. To change a role's admin, use {_setRoleAdmin}."
      },
      "grantRole(bytes32,address)": {
        "details": "Grants `role` to `account`. If `account` had not been already granted `role`, emits a {RoleGranted} event. Requirements: - the caller must have ``role``'s admin role. May emit a {RoleGranted} event."
      },
      "hasRole(bytes32,address)": {
        "details": "Returns `true` if `account` has been granted `role`."
      },
      "renounceRole(bytes32,address)": {
        "details": "Revokes `role` from the calling account. Roles are often managed via {grantRole} and {revokeRole}: this function's purpose is to provide a mechanism for accounts to lose their privileges if they are compromised (such as when a trusted device is misplaced). If the calling account had been revoked `role`, emits a {RoleRevoked} event. Requirements: - the caller must be `account`. May emit a {RoleRevoked} event."
      },
      "revokeRole(bytes32,address)": {
        "details": "Revokes `role` from `account`. If `account` had been granted `role`, emits a {RoleRevoked} event. Requirements: - the caller must have ``role``'s admin role. May emit a {RoleRevoked} event."
      },
      "supportsInterface(bytes4)": {
        "details": "See {IERC165-supportsInterface}."
      }
    },
    "version": 1
  },
  "userdoc": {
    "kind": "user",
    "methods": {},
    "version": 1
  }
}