{
  "contractName": "ReimbursementContract",
  "abi": [
    {
      "inputs": [
        {
          "internalType": "address",
          "name": "_registry",
          "type": "address"
        },
        {
          "internalType": "address",
          "name": "_billContract",
          "type": "address"
        },
        {
          "internalType": "address",
          "name": "_token",
          "type": "address"
        }
      ],
      "stateMutability": "nonpayable",
      "type": "constructor"
    },
    {
      "anonymous": false,
      "inputs": [
        {
          "indexed": false,
          "internalType": "uint256",
          "name": "billId",
          "type": "uint256"
        },
        {
          "indexed": false,
          "internalType": "address",
          "name": "citizen",
          "type": "address"
        },
        {
          "indexed": false,
          "internalType": "uint256",
          "name": "payout",
          "type": "uint256"
        }
      ],
      "name": "Reimbursed",
      "type": "event"
    },
    {
      "anonymous": false,
      "inputs": [
        {
          "indexed": false,
          "internalType": "uint256",
          "name": "billId",
          "type": "uint256"
        },
        {
          "indexed": false,
          "internalType": "address",
          "name": "citizen",
          "type": "address"
        },
        {
          "indexed": false,
          "internalType": "string",
          "name": "reason",
          "type": "string"
        }
      ],
      "name": "Rejected",
      "type": "event"
    },
    {
      "anonymous": false,
      "inputs": [
        {
          "indexed": true,
          "internalType": "bytes32",
          "name": "role",
          "type": "bytes32"
        },
        {
          "indexed": true,
          "internalType": "bytes32",
          "name": "previousAdminRole",
          "type": "bytes32"
        },
        {
          "indexed": true,
          "internalType": "bytes32",
          "name": "newAdminRole",
          "type": "bytes32"
        }
      ],
      "name": "RoleAdminChanged",
      "type": "event"
    },
    {
      "anonymous": false,
      "inputs": [
        {
          "indexed": true,
          "internalType": "bytes32",
          "name": "role",
          "type": "bytes32"
        },
        {
          "indexed": true,
          "internalType": "address",
          "name": "account",
          "type": "address"
        },
        {
          "indexed": true,
          "internalType": "address",
          "name": "sender",
          "type": "address"
        }
      ],
      "name": "RoleGranted",
      "type": "event"
    },
    {
      "anonymous": false,
      "inputs": [
        {
          "indexed": true,
          "internalType": "bytes32",
          "name": "role",
          "type": "bytes32"
        },
        {
          "indexed": true,
          "internalType": "address",
          "name": "account",
          "type": "address"
        },
        {
          "indexed": true,
          "internalType": "address",
          "name": "sender",
          "type": "address"
        }
      ],
      "name": "RoleRevoked",
      "type": "event"
    },
    {
      "inputs": [],
      "name": "DEFAULT_ADMIN_ROLE",
      "outputs": [
        {
          "internalType": "bytes32",
          "name": "",
          "type": "bytes32"
        }
      ],
      "stateMutability": "view",
      "type": "function",
      "constant": true
    },
    {
      "inputs": [],
      "name": "billContract",
      "outputs": [
        {
          "internalType": "contract HospitalBillContract",
          "name": "",
          "type": "address"
        }
      ],
      "stateMutability": "view",
      "type": "function",
      "constant": true
    },
    {
      "inputs": [
        {
          "internalType": "bytes32",
          "name": "role",
          "type": "bytes32"
        }
      ],
      "name": "getRoleAdmin",
      "outputs": [
        {
          "internalType": "bytes32",
          "name": "",
          "type": "bytes32"
        }
      ],
      "stateMutability": "view",
      "type": "function",
      "constant": true
    },
    {
      "inputs": [
        {
          "internalType": "bytes32",
          "name": "role",
          "type": "bytes32"
        },
        {
          "internalType": "address",
          "name": "account",
          "type": "address"
        }
      ],
      "name": "grantRole",
      "outputs": [],
      "stateMutability": "nonpayable",
      "type": "function"
    },
    {
      "inputs": [
        {
          "internalType": "bytes32",
          "name": "role",
          "type": "bytes32"
        },
        {
          "internalType": "address",
          "name": "account",
          "type": "address"
        }
      ],
      "name": "hasRole",
      "outputs": [
        {
          "internalType": "bool",
          "name": "",
          "type": "bool"
        }
      ],
      "stateMutability": "view",
      "type": "function",
      "constant": true
    },
    {
      "inputs": [],
      "name": "registry",
      "outputs": [
        {
          "internalType": "contract InsuranceRegistry",
          "name": "",
          "type": "address"
        }
      ],
      "stateMutability": "view",
      "type": "function",
      "constant": true
    },
    {
      "inputs": [
        {
          "internalType": "bytes32",
          "name": "role",
          "type": "bytes32"
        },
        {
          "internalType": "address",
          "name": "account",
          "type": "address"
        }
      ],
      "name": "renounceRole",
      "outputs": [],
      "stateMutability": "nonpayable",
      "type": "function"
    },
    {
      "inputs": [
        {
          "internalType": "bytes32",
          "name": "role",
          "type": "bytes32"
        },
        {
          "internalType": "address",
          "name": "account",
          "type": "address"
        }
      ],
      "name": "revokeRole",
      "outputs": [],
      "stateMutability": "nonpayable",
      "type": "function"
    },
    {
      "inputs": [
        {
          "internalType": "bytes4",
          "name": "interfaceId",
          "type": "bytes4"
        }
      ],
      "name": "supportsInterface",
      "outputs": [
        {
          "internalType": "bool",
          "name": "",
          "type": "bool"
        }
      ],
      "stateMutability": "view",
      "type": "function",
      "constant": true
    },
    {
      "inputs": [],
      "name": "token",
      "outputs": [
        {
          "internalType": "contract GovStable",
          "name": "",
          "type": "address"
        }
      ],
      "stateMutability": "view",
      "type": "function",
      "constant": true
    },
    {
      "inputs": [
        {
          "internalType": "uint256",
          "name": "billId",
          "type": "uint256"
        }
      ],
      "name": "processReimbursement",
      "outputs": [],
      "stateMutability": "nonpayable",
      "type": "function"
    }
  ],
  "bytecode": "0x60806040523480156200001157600080fd5b506040516200212b3803806200212b8339818101604052810190620000379190620002ec565b60018081905550620000536000801b336200011f60201b60201c565b82600260006101000a81548173ffffffffffffffffffffffffffffffffffffffff021916908373ffffffffffffffffffffffffffffffffffffffff16021790555081600360006101000a81548173ffffffffffffffffffffffffffffffffffffffff021916908373ffffffffffffffffffffffffffffffffffffffff16021790555080600460006101000a81548173ffffffffffffffffffffffffffffffffffffffff021916908373ffffffffffffffffffffffffffffffffffffffff16021790555050505062000348565b6200013182826200021060201b60201c565b6200020c57600160008084815260200190815260200160002060000160008373ffffffffffffffffffffffffffffffffffffffff1673ffffffffffffffffffffffffffffffffffffffff16815260200190815260200160002060006101000a81548160ff021916908315150217905550620001b16200027a60201b60201c565b73ffffffffffffffffffffffffffffffffffffffff168173ffffffffffffffffffffffffffffffffffffffff16837f2f8788117e7eff1d82e926ec794901d17c78024a50270940304540a733656f0d60405160405180910390a45b5050565b600080600084815260200190815260200160002060000160008373ffffffffffffffffffffffffffffffffffffffff1673ffffffffffffffffffffffffffffffffffffffff16815260200190815260200160002060009054906101000a900460ff16905092915050565b600033905090565b600080fd5b600073ffffffffffffffffffffffffffffffffffffffff82169050919050565b6000620002b48262000287565b9050919050565b620002c681620002a7565b8114620002d257600080fd5b50565b600081519050620002e681620002bb565b92915050565b60008060006060848603121562000308576200030762000282565b5b60006200031886828701620002d5565b93505060206200032b86828701620002d5565b92505060406200033e86828701620002d5565b9150509250925092565b611dd380620003586000396000f3fe608060405234801561001057600080fd5b50600436106100a95760003560e01c80637b103999116100715780637b1039991461016257806391d14854146101805780639d3243d7146101b0578063a217fddf146101ce578063d547741f146101ec578063fc0c546a14610208576100a9565b806301ffc9a7146100ae57806311925e76146100de578063248a9ca3146100fa5780632f2ff15d1461012a57806336568abe14610146575b600080fd5b6100c860048036038101906100c39190611054565b610226565b6040516100d5919061109c565b60405180910390f35b6100f860048036038101906100f391906110ed565b6102a0565b005b610114600480360381019061010f9190611150565b610899565b604051610121919061118c565b60405180910390f35b610144600480360381019061013f9190611205565b6108b8565b005b610160600480360381019061015b9190611205565b6108d9565b005b61016a61095c565b60405161017791906112a4565b60405180910390f35b61019a60048036038101906101959190611205565b610982565b6040516101a7919061109c565b60405180910390f35b6101b86109ec565b6040516101c591906112e0565b60405180910390f35b6101d6610a12565b6040516101e3919061118c565b60405180910390f35b61020660048036038101906102019190611205565b610a19565b005b610210610a3a565b60405161021d919061131c565b60405180910390f35b60007f7965db0b000000000000000000000000000000000000000000000000000000007bffffffffffffffffffffffffffffffffffffffffffffffffffffffff1916827bffffffffffffffffffffffffffffffffffffffffffffffffffffffff19161480610299575061029882610a60565b5b9050919050565b6102a8610aca565b6000801b6102b581610b19565b6000600360009054906101000a900473ffffffffffffffffffffffffffffffffffffffff1673ffffffffffffffffffffffffffffffffffffffff1663b1cd06e6846040518263ffffffff1660e01b81526004016103129190611346565b60a060405180830381865afa15801561032f573d6000803e3d6000fd5b505050506040513d601f19601f8201168201806040525081019061035391906114e2565b9050600060028111156103695761036861150f565b5b816080015160028111156103805761037f61150f565b5b146103c8577f57bef5442a9200b3dece1864ca545774940fc88e515bd251ddab26f14567c8288382600001516040516103ba9291906115aa565b60405180910390a15061088d565b600080600260009054906101000a900473ffffffffffffffffffffffffffffffffffffffff1673ffffffffffffffffffffffffffffffffffffffff1663382525a184600001516040518263ffffffff1660e01b815260040161042a91906115e6565b608060405180830381865afa158015610447573d6000803e3d6000fd5b505050506040513d601f19601f8201168201806040525081019061046b919061169f565b9150915060008160400151036104c0577f57bef5442a9200b3dece1864ca545774940fc88e515bd251ddab26f14567c8288584600001516040516104b092919061172b565b60405180910390a150505061088d565b6000600260009054906101000a900473ffffffffffffffffffffffffffffffffffffffff1673ffffffffffffffffffffffffffffffffffffffff16633dd6d53385600001516040518263ffffffff1660e01b815260040161052191906115e6565b602060405180830381865afa15801561053e573d6000803e3d6000fd5b505050506040513d601f19601f820116820180604052508101906105629190611767565b9050816040015181106105b5577f57bef5442a9200b3dece1864ca545774940fc88e515bd251ddab26f14567c8288685600001516040516105a49291906117e0565b60405180910390a15050505061088d565b6000826020015190506000836000015161ffff169050600082876040015111156105ec578287604001516105e9919061184b565b90505b6000612710836127106105ff919061184b565b8361060a919061187f565b61061491906118f0565b9050856040015185826106279190611921565b11156106405784866040015161063d919061184b565b90505b60008103610692577f57bef5442a9200b3dece1864ca545774940fc88e515bd251ddab26f14567c8288a896000015160405161067d9291906119a1565b60405180910390a1505050505050505061088d565b600460009054906101000a900473ffffffffffffffffffffffffffffffffffffffff1673ffffffffffffffffffffffffffffffffffffffff166340c10f198960000151836040518363ffffffff1660e01b81526004016106f39291906119dd565b600060405180830381600087803b15801561070d57600080fd5b505af1158015610721573d6000803e3d6000fd5b50505050600260009054906101000a900473ffffffffffffffffffffffffffffffffffffffff1673ffffffffffffffffffffffffffffffffffffffff1663a9218ed78960000151836040518363ffffffff1660e01b81526004016107869291906119dd565b600060405180830381600087803b1580156107a057600080fd5b505af11580156107b4573d6000803e3d6000fd5b50505050600360009054906101000a900473ffffffffffffffffffffffffffffffffffffffff1673ffffffffffffffffffffffffffffffffffffffff16631841f5588b6040518263ffffffff1660e01b81526004016108139190611346565b600060405180830381600087803b15801561082d57600080fd5b505af1158015610841573d6000803e3d6000fd5b505050507fb9018e3bb1e92e418eee4dffa94ae89bcd21fa2514ec13417a17ea8344c099cf8a89600001518360405161087c93929190611a06565b60405180910390a150505050505050505b50610896610b2d565b50565b6000806000838152602001908152602001600020600101549050919050565b6108c182610899565b6108ca81610b19565b6108d48383610b36565b505050565b6108e1610c16565b73ffffffffffffffffffffffffffffffffffffffff168173ffffffffffffffffffffffffffffffffffffffff161461094e576040517f08c379a000000000000000000000000000000000000000000000000000000000815260040161094590611aaf565b60405180910390fd5b6109588282610c1e565b5050565b600260009054906101000a900473ffffffffffffffffffffffffffffffffffffffff1681565b600080600084815260200190815260200160002060000160008373ffffffffffffffffffffffffffffffffffffffff1673ffffffffffffffffffffffffffffffffffffffff16815260200190815260200160002060009054906101000a900460ff16905092915050565b600360009054906101000a900473ffffffffffffffffffffffffffffffffffffffff1681565b6000801b81565b610a2282610899565b610a2b81610b19565b610a358383610c1e565b505050565b600460009054906101000a900473ffffffffffffffffffffffffffffffffffffffff1681565b60007f01ffc9a7000000000000000000000000000000000000000000000000000000007bffffffffffffffffffffffffffffffffffffffffffffffffffffffff1916827bffffffffffffffffffffffffffffffffffffffffffffffffffffffff1916149050919050565b600260015403610b0f576040517f08c379a0000000000000000000000000000000000000000000000000000000008152600401610b0690611b1b565b60405180910390fd5b6002600181905550565b610b2a81610b25610c16565b610cff565b50565b60018081905550565b610b408282610982565b610c1257600160008084815260200190815260200160002060000160008373ffffffffffffffffffffffffffffffffffffffff1673ffffffffffffffffffffffffffffffffffffffff16815260200190815260200160002060006101000a81548160ff021916908315150217905550610bb7610c16565b73ffffffffffffffffffffffffffffffffffffffff168173ffffffffffffffffffffffffffffffffffffffff16837f2f8788117e7eff1d82e926ec794901d17c78024a50270940304540a733656f0d60405160405180910390a45b5050565b600033905090565b610c288282610982565b15610cfb57600080600084815260200190815260200160002060000160008373ffffffffffffffffffffffffffffffffffffffff1673ffffffffffffffffffffffffffffffffffffffff16815260200190815260200160002060006101000a81548160ff021916908315150217905550610ca0610c16565b73ffffffffffffffffffffffffffffffffffffffff168173ffffffffffffffffffffffffffffffffffffffff16837ff6391f5c32d9c69d2a47ea670b442974b53935d1edc7fd64eb21e047a839171b60405160405180910390a45b5050565b610d098282610982565b610d8057610d1681610d84565b610d248360001c6020610db1565b604051602001610d35929190611c44565b6040516020818303038152906040526040517f08c379a0000000000000000000000000000000000000000000000000000000008152600401610d779190611cb7565b60405180910390fd5b5050565b6060610daa8273ffffffffffffffffffffffffffffffffffffffff16601460ff16610db1565b9050919050565b606060006002836002610dc4919061187f565b610dce9190611921565b67ffffffffffffffff811115610de757610de6611377565b5b6040519080825280601f01601f191660200182016040528015610e195781602001600182028036833780820191505090505b5090507f300000000000000000000000000000000000000000000000000000000000000081600081518110610e5157610e50611cd9565b5b60200101907effffffffffffffffffffffffffffffffffffffffffffffffffffffffffffff1916908160001a9053507f780000000000000000000000000000000000000000000000000000000000000081600181518110610eb557610eb4611cd9565b5b60200101907effffffffffffffffffffffffffffffffffffffffffffffffffffffffffffff1916908160001a90535060006001846002610ef5919061187f565b610eff9190611921565b90505b6001811115610f9f577f3031323334353637383961626364656600000000000000000000000000000000600f861660108110610f4157610f40611cd9565b5b1a60f81b828281518110610f5857610f57611cd9565b5b60200101907effffffffffffffffffffffffffffffffffffffffffffffffffffffffffffff1916908160001a905350600485901c945080610f9890611d08565b9050610f02565b5060008414610fe3576040517f08c379a0000000000000000000000000000000000000000000000000000000008152600401610fda90611d7d565b60405180910390fd5b8091505092915050565b6000604051905090565b600080fd5b60007fffffffff0000000000000000000000000000000000000000000000000000000082169050919050565b61103181610ffc565b811461103c57600080fd5b50565b60008135905061104e81611028565b92915050565b60006020828403121561106a57611069610ff7565b5b60006110788482850161103f565b91505092915050565b60008115159050919050565b61109681611081565b82525050565b60006020820190506110b1600083018461108d565b92915050565b6000819050919050565b6110ca816110b7565b81146110d557600080fd5b50565b6000813590506110e7816110c1565b92915050565b60006020828403121561110357611102610ff7565b5b6000611111848285016110d8565b91505092915050565b6000819050919050565b61112d8161111a565b811461113857600080fd5b50565b60008135905061114a81611124565b92915050565b60006020828403121561116657611165610ff7565b5b60006111748482850161113b565b91505092915050565b6111868161111a565b82525050565b60006020820190506111a1600083018461117d565b92915050565b600073ffffffffffffffffffffffffffffffffffffffff82169050919050565b60006111d2826111a7565b9050919050565b6111e2816111c7565b81146111ed57600080fd5b50565b6000813590506111ff816111d9565b92915050565b6000806040838503121561121c5761121b610ff7565b5b600061122a8582860161113b565b925050602061123b858286016111f0565b9150509250929050565b6000819050919050565b600061126a611265611260846111a7565b611245565b6111a7565b9050919050565b600061127c8261124f565b9050919050565b600061128e82611271565b9050919050565b61129e81611283565b82525050565b60006020820190506112b96000830184611295565b92915050565b60006112ca82611271565b9050919050565b6112da816112bf565b82525050565b60006020820190506112f560008301846112d1565b92915050565b600061130682611271565b9050919050565b611316816112fb565b82525050565b6000602082019050611331600083018461130d565b92915050565b611340816110b7565b82525050565b600060208201905061135b6000830184611337565b92915050565b600080fd5b6000601f19601f8301169050919050565b7f4e487b7100000000000000000000000000000000000000000000000000000000600052604160045260246000fd5b6113af82611366565b810181811067ffffffffffffffff821117156113ce576113cd611377565b5b80604052505050565b60006113e1610fed565b90506113ed82826113a6565b919050565b600081519050611401816111d9565b92915050565b600081519050611416816110c1565b92915050565b60008151905061142b81611124565b92915050565b6003811061143e57600080fd5b50565b60008151905061145081611431565b92915050565b600060a0828403121561146c5761146b611361565b5b61147660a06113d7565b90506000611486848285016113f2565b600083015250602061149a84828501611407565b60208301525060406114ae84828501611407565b60408301525060606114c28482850161141c565b60608301525060806114d684828501611441565b60808301525092915050565b600060a082840312156114f8576114f7610ff7565b5b600061150684828501611456565b91505092915050565b7f4e487b7100000000000000000000000000000000000000000000000000000000600052602160045260246000fd5b611547816111c7565b82525050565b600082825260208201905092915050565b7f496e76616c696420737461747573000000000000000000000000000000000000600082015250565b6000611594600e8361154d565b915061159f8261155e565b602082019050919050565b60006060820190506115bf6000830185611337565b6115cc602083018461153e565b81810360408301526115dd81611587565b90509392505050565b60006020820190506115fb600083018461153e565b92915050565b600061ffff82169050919050565b61161881611601565b811461162357600080fd5b50565b6000815190506116358161160f565b92915050565b60006060828403121561165157611650611361565b5b61165b60606113d7565b9050600061166b84828501611626565b600083015250602061167f84828501611407565b602083015250604061169384828501611407565b60408301525092915050565b600080608083850312156116b6576116b5610ff7565b5b60006116c485828601611407565b92505060206116d58582860161163b565b9150509250929050565b7f436974697a656e206e6f74207265676973746572656400000000000000000000600082015250565b600061171560168361154d565b9150611720826116df565b602082019050919050565b60006060820190506117406000830185611337565b61174d602083018461153e565b818103604083015261175e81611708565b90509392505050565b60006020828403121561177d5761177c610ff7565b5b600061178b84828501611407565b91505092915050565b7f436f766572616765206578686175737465640000000000000000000000000000600082015250565b60006117ca60128361154d565b91506117d582611794565b602082019050919050565b60006060820190506117f56000830185611337565b611802602083018461153e565b8181036040830152611813816117bd565b90509392505050565b7f4e487b7100000000000000000000000000000000000000000000000000000000600052601160045260246000fd5b6000611856826110b7565b9150611861836110b7565b92508282039050818111156118795761187861181c565b5b92915050565b600061188a826110b7565b9150611895836110b7565b92508282026118a3816110b7565b915082820484148315176118ba576118b961181c565b5b5092915050565b7f4e487b7100000000000000000000000000000000000000000000000000000000600052601260045260246000fd5b60006118fb826110b7565b9150611906836110b7565b925082611916576119156118c1565b5b828204905092915050565b600061192c826110b7565b9150611937836110b7565b925082820190508082111561194f5761194e61181c565b5b92915050565b7f5061796f7574203d203000000000000000000000000000000000000000000000600082015250565b600061198b600a8361154d565b915061199682611955565b602082019050919050565b60006060820190506119b66000830185611337565b6119c3602083018461153e565b81810360408301526119d48161197e565b90509392505050565b60006040820190506119f2600083018561153e565b6119ff6020830184611337565b9392505050565b6000606082019050611a1b6000830186611337565b611a28602083018561153e565b611a356040830184611337565b949350505050565b7f416363657373436f6e74726f6c3a2063616e206f6e6c792072656e6f756e636560008201527f20726f6c657320666f722073656c660000000000000000000000000000000000602082015250565b6000611a99602f8361154d565b9150611aa482611a3d565b604082019050919050565b60006020820190508181036000830152611ac881611a8c565b9050919050565b7f5265656e7472616e637947756172643a207265656e7472616e742063616c6c00600082015250565b6000611b05601f8361154d565b9150611b1082611acf565b602082019050919050565b60006020820190508181036000830152611b3481611af8565b9050919050565b600081905092915050565b7f416363657373436f6e74726f6c3a206163636f756e7420000000000000000000600082015250565b6000611b7c601783611b3b565b9150611b8782611b46565b601782019050919050565b600081519050919050565b60005b83811015611bbb578082015181840152602081019050611ba0565b60008484015250505050565b6000611bd282611b92565b611bdc8185611b3b565b9350611bec818560208601611b9d565b80840191505092915050565b7f206973206d697373696e6720726f6c6520000000000000000000000000000000600082015250565b6000611c2e601183611b3b565b9150611c3982611bf8565b601182019050919050565b6000611c4f82611b6f565b9150611c5b8285611bc7565b9150611c6682611c21565b9150611c728284611bc7565b91508190509392505050565b6000611c8982611b92565b611c93818561154d565b9350611ca3818560208601611b9d565b611cac81611366565b840191505092915050565b60006020820190508181036000830152611cd18184611c7e565b905092915050565b7f4e487b7100000000000000000000000000000000000000000000000000000000600052603260045260246000fd5b6000611d13826110b7565b915060008203611d2657611d2561181c565b5b600182039050919050565b7f537472696e67733a20686578206c656e67746820696e73756666696369656e74600082015250565b6000611d6760208361154d565b9150611d7282611d31565b602082019050919050565b60006020820190508181036000830152611d9681611d5a565b905091905056fea26469706673582212203087941ec9deaf0fbcffa8fbb192b343937b9820d4abea92854b7e7ac9df3e8564736f6c63430008130033",
  "immutableReferences": {},
  "source": "pragma solidity ^0.8.19;\r\n\r\nimport \"@openzeppelin/contracts/security/ReentrancyGuard.sol\";\r\nimport \"@openzeppelin/contracts/access/AccessControl.sol\";\r\nimport \"./GovStable.sol\";\r\nimport \"./InsuranceRegistry.sol\";\r\nimport \"./HospitalBillContract.sol\";\r\n\r\ncontract ReimbursementContract is AccessControl, ReentrancyGuard {\r\n    InsuranceRegistry public registry;\r\n    HospitalBillContract public billContract;\r\n    GovStable public token;\r\n\r\n    event Reimbursed(uint256 billId, address citizen, uint256 payout);\r\n    event Rejected(uint256 billId, address citizen, string reason);\r\n\r\n    constructor(address _registry, address _billContract, address _token) {\r\n        _grantRole(DEFAULT_ADMIN_ROLE, msg.sender);\r\n        registry = InsuranceRegistry(_registry);\r\n        billContract = HospitalBillContract(_billContract);\r\n        token = GovStable(_token);\r\n    }\r\n\r\n    function processReimbursement(uint256 billId) external nonReentrant onlyRole(DEFAULT_ADMIN_ROLE) {\r\n        HospitalBillContract.Bill memory bill = billContract.getBill(billId);\r\n        if (bill.status != HospitalBillContract.BillStatus.Submitted) {\r\n            emit Rejected(billId, bill.citizen, \"Invalid status\");\r\n            return;\r\n        }\r\n\r\n        (uint256 planId, InsuranceRegistry.Plan memory plan) = registry.getPlanOf(bill.citizen);\r\n        if (plan.coverageLimit == 0) {\r\n            emit Rejected(billId, bill.citizen, \"Citizen not registered\");\r\n            return;\r\n        }\r\n\r\n        uint256 paidSoFar = registry.totalPaid(bill.citizen);\r\n        if (paidSoFar >= plan.coverageLimit) {\r\n            emit Rejected(billId, bill.citizen, \"Coverage exhausted\");\r\n            return;\r\n        }\r\n\r\n        uint256 deductible = plan.deductible;\r\n        uint256 copayPct = plan.copayBps; // e.g., 100 = 1%\r\n\r\n        uint256 eligible = 0;\r\n        if (bill.amount > deductible) {\r\n            eligible = bill.amount - deductible;\r\n        }\r\n\r\n        uint256 payout = (eligible * (10000 - copayPct)) / 10000;\r\n        if (payout + paidSoFar > plan.coverageLimit) {\r\n            payout = plan.coverageLimit - paidSoFar;\r\n        }\r\n\r\n        if (payout == 0) {\r\n            emit Rejected(billId, bill.citizen, \"Payout = 0\");\r\n            return;\r\n        }\r\n\r\n        token.mint(bill.citizen, payout);\r\n        registry.addPaid(bill.citizen, payout);\r\n        billContract.markReimbursed(billId);\r\n\r\n        emit Reimbursed(billId, bill.citizen, payout);\r\n    }\r\n}\r\n",
  "sourcePath": "D:\\Githubproj\\BlockchainTeam2\\Contracts\\ReimbursementContract.sol",
  "compiler": {
    "name": "solc",
    "version": "0.8.19+commit.7dd6d404.Emscripten.clang"
  },
  "schemaVersion": "3.4.16",
  "updatedAt": "2025-10-31T15:39:26.372Z",
  "networkType": "ethereum",
  "devdoc": {
    "events": {
      "RoleAdminChanged(bytes32,bytes32,bytes32)": {
        "details": "Emitted when `newAdminRole` is set as ``role``'s admin role, replacing `previousAdminRole` `DEFAULT_ADMIN_ROLE` is the starting admin for all roles, despite {RoleAdminChanged} not being emitted signaling this. _Available since v3.1._"
      },
      "RoleGranted(bytes32,address,address)": {
        "details": "Emitted when `account` is granted `role`. `sender` is the account that originated the contract call, an admin role bearer except when using {AccessControl-_setupRole}."
      },
      "RoleRevoked(bytes32,address,address)": {
        "details": "Emitted when `account` is revoked `role`. `sender` is the account that originated the contract call:   - if using `revokeRole`, it is the admin role bearer   - if using `renounceRole`, it is the role bearer (i.e. `account`)"
      }
    },
    "kind": "dev",
    "methods": {
      "getRoleAdmin(bytes32)": {
        "details": "Returns the admin role that controls `role`. See {grantRole} and {revokeRole}. To change a role's admin, use {_setRoleAdmin}."
      },
      "grantRole(bytes32,address)": {
        "details": "Grants `role` to `account`. If `account` had not been already granted `role`, emits a {RoleGranted} event. Requirements: - the caller must have ``role``'s admin role. May emit a {RoleGranted} event."
      },
      "hasRole(bytes32,address)": {
        "details": "Returns `true` if `account` has been granted `role`."
      },
      "renounceRole(bytes32,address)": {
        "details": "Revokes `role` from the calling account. Roles are often managed via {grantRole} and {revokeRole}: this function's purpose is to provide a mechanism for accounts to lose their privileges if they are compromised (such as when a trusted device is misplaced). If the calling account had been revoked `role`, emits a {RoleRevoked} event. Requirements: - the caller must be `account`. May emit a {RoleRevoked} event."
      },
      "revokeRole(bytes32,address)": {
        "details": "Revokes `role` from `account`. If `account` had been granted `role`, emits a {RoleRevoked} event. Requirements: - the caller must have ``role``'s admin role. May emit a {RoleRevoked} event."
      },
      "supportsInterface(bytes4)": {
        "details": "See {IERC165-supportsInterface}."
      }
    },
    "version": 1
  },
  "userdoc": {
    "kind": "user",
    "methods": {},
    "version": 1
  }
}